:100000000C9493000C94B0000C94B0000C94B000CD
:100010000C94B0000C94B0000C94B0000C946A11D5
:100020000C94B0000C94B0000C94B0000C94B00090
:100030000C94B0000C9498120C94B0000C94B00086
:100040000C94B0000C94B0000C94B0000C94B00070
:100050000C94B0002C056A059205DD0510067F069C
:10006000A8062707CC06010756078907B007F3043F
:1000700075093A09FE099A09C309C307EB0728085D
:10008000F3043308F304F30469088B08F5081F0927
:10009000F3040A05260B260B260B260B260B260B34
:1000A000D30A260BD30A260B590A260B260B590A0C
:1000B000D30AD30AD30A260B260B260BD30A260B08
:1000C000590AD30A590A590A260B260B260B260B66
:1000D000590AD30AFB0FDC0FB30F8A0F5C0F440FD2
:1000E000310F080FF90ED10EC90BA90E800EC90BE6
:1000F000680E400E2D0E170EFC0DCE0DA70D7E0DB9
:10010000C90B560DC90BC90B3D0D220DFA0CD20CB3
:10011000C90BAE0C03070F162C070F070F001015A5
:1001200025250101000011241FBECFE5D8E0DEBF68
:10013000CDBF10E0A0E6B0E0E8EAF8E202C005902A
:100140000D92AA38B107D9F721E0AAE8B0E001C0C2
:100150001D92AB3AB207E1F70E94C3110C945214FE
:100160000C9400000F931F93CF93DF93CDB7DEB7AE
:1001700065970FB6F894DEBF0FBECDBF8C0182E746
:10018000898380E78A83BE016D5F7F4FF80180819C
:100190000E944E1281E68D83BE016A5F7F4FF80197
:1001A000818192810E941A1283E68A87BE01655F6F
:1001B0007F4FF801838194810E941A1286E68F870F
:1001C000BE01605F7F4FF80185810E944E1260E1A1
:1001D000CE0101960E94071365960FB6F894DEBF14
:1001E0000FBECDBFDF91CF911F910F910895CF9397
:1001F000DF9300D000D000D0CDB7DEB7CE0101969E
:100200000E946802CE0101960E94B20026960FB6A7
:10021000F894DEBF0FBECDBFDF91CF910895CF938D
:10022000DF93CDB7DEB765970FB6F894DEBF0FBE8C
:10023000CDBF86E7898385E0E9E6F0E0DE0112962E
:1002400001900D928A95E1F78DE28E838BE0EEE6C8
:10025000F0E0DE01179601900D928A95E1F761E1D9
:10026000CE0101960E94071365960FB6F894DEBF83
:100270000FBECDBFDF91CF910895CF93DF93CDB760
:10028000DEB76D970FB6F894DEBF0FBECDBFCE01BF
:1002900001960E9403148823C9F089818337F9F0FD
:1002A000863761F0823699F728E088E190E00FB652
:1002B000F894A89581BD0FBE21BDFFCF0E940F010C
:1002C000CE0101960E9403148111E7CF6D960FB6FF
:1002D000F894DEBF0FBECDBFDF91CF91089541E00E
:1002E000BE01645E7F4FCE0103960E94F2118C8D99
:1002F0008E8B42E0BE01645E7F4FCE0106960E9467
:10030000F2118C8D9D8D982789279827988F8F8B38
:1003100042E0BE01645E7F4FCE010B960E94F21157
:100320008C8D9D8D9827892798279A8F898F41E0FA
:10033000BE01645E7F4FCE0140960E94F2118C8D0B
:100340008B8F61E0CE0146960E94DA04A0CF6FE069
:1003500089E790E00E9407138091E30080FF08C0C6
:100360009FB7F8948091E3008E7F8093E3009FBF56
:100370008091E30081FF0AC09FB7F8948091E30069
:100380008D7F8093E3009FBF0E943D018091E30039
:1003900082FF0AC09FB7F8948091E3008B7F80931F
:1003A000E3009FBF0E94AF138091E30087FFD4CF8B
:1003B0009FB7F8948091E3008F778093E3009FBF0D
:1003C0000E94F700C9CF9091A90060919B00691726
:1003D00030F12091AA00621710F52091AF0022237E
:1003E00009F45BC0482F50E0262F30E0291B31096B
:1003F00002C0440F551F2A95E2F7209199003091D1
:100400009A00242B352B30939A00209399009091D9
:10041000A000933031F16F5F60939B00089590913D
:10042000AB006917A0F32091AC00621780F7209110
:10043000AF002223F1F1482F50E0262F30E0291B96
:10044000310902C0440F551F2A95E2F72091970009
:1004500030919800242B352B3093980020939700EF
:10046000D6CF6131C0F26531B0F690E0262F30E092
:100470002151310902C0880F991F2A95E2F7209176
:10048000B1003091B200282B392B3093B200209369
:10049000B1006F5F60939B000895209199003091A7
:1004A0009A00220F331F282B30939A002093990033
:1004B000AECF2091970030919800220F331F282B48
:1004C0003093980020939700A2CFC098B8980895D1
:1004D000209192002223C9F120919100233009F14B
:1004E00020919100FC01208320918F003091900099
:1004F0003283218320918D0030918E0034832383B9
:1005000020918A00258310928E0010928D00109207
:10051000900010928F0010928A0081E01092920059
:10052000089540918D0050918E0020918D00309162
:100530008E00452F552720953095332742175307B6
:1005400031F080E010929200089580E008952091AB
:100550008D0030918E00332730938E0020938D00D4
:1005600020918B0030918C0040918D0050918E0035
:10057000322F2227242B352B30938E0020938D0091
:10058000AFCFCF9396B380919200811119C0917033
:10059000C0919300C11118C080919400992309F46F
:1005A000E0C0811122C180919E0090919F008F3FF9
:1005B0002FEF920729F0019690939F0080939E0061
:1005C00080919200CF91089580919500882309F43D
:1005D0007DC0992309F4D5C080919C0090919D0025
:1005E000019690939D0080939C008733914008F082
:1005F000BFC09091AD0080919B009813E1CF809196
:10060000AE008111DDCF20916000309161008091BA
:100610009700909198002817390709F436C1109275
:10062000B3002091A0002A3009F426C181E0809314
:1006300092009FB7F8948091E30080688093E30074
:100640009FBF8091A000809391008091990090912C
:100650009A009093900080938F00809197009091E2
:10066000980090938E0080938D002091B10030917E
:10067000B20030938C0020938B00209192002223B3
:10068000C1F020916000309161002817390709F40A
:100690003DC12091990030919A00309363002093DE
:1006A0006200909361008093600010929F0010920E
:1006B0009E00109293001092980010929700109252
:1006C000940010929D0010929C007ACF8091960029
:1006D000882309F482C09111A1C08091A0008330C9
:1006E00009F4F5C0409194008091A1004817A8F04A
:1006F0008091A200841788F080919C0090919D00C9
:100700002091A30030E08217930738F02091A400D5
:1007100030E02817390708F021C18091A50048175B
:10072000A8F08091A600841788F080919C00909199
:100730009D002091A70030E08217930738F02091A8
:10074000A80030E02817390708F00EC11092930076
:1007500010929D0010929C00C0E081E08093940074
:1007600038C08F5F8093940080919200CF9108955C
:10077000109293001092940010929D0010929C0091
:100780001FCF8091940080558531A8F480919C0002
:1007900090919D008035910570F08536910558F453
:1007A00041E150E064E171E080EA90E00E94401491
:1007B000C091930003C010929300C0E010929B0080
:1007C00081E08093940010929D0010929C00109202
:1007D0009500CC2309F4F4CE0CCF911143C0809145
:1007E00094008F5F8093940004CF81E08093930006
:1007F00080939500109296001092980010929700A6
:1008000010929A00109299008FEF80939B0081E0E4
:1008100090E090939D0080939C00D2CE5091AD00CB
:1008200040919B00541709F43EC080919C00909128
:100830009D00019690939D0080939C00873391408A
:1008400040F2242F30E0852F90E0019728173907D8
:1008500009F08ECF8091AE0081118ACF4F5F409317
:100860009B00B7CF81E08093960081E090E0909369
:100870009D0080939C00BDCE2091B30020FFD6CE7A
:1008800010929F0010929E00F8CE20919E00309111
:100890009F002034364008F0C2CE2091B3002F5F75
:1008A0002093B300BECE8091AE00813009F0BDCF61
:1008B000809194009091A500891708F459CF9091E8
:1008C000A600981708F454CF1092AE0082CF809102
:1008D0009B00803109F006CF8091940087508930C9
:1008E00008F034CF80919C0090919D008035910557
:1008F00038F18536910520F5109296001092B200DD
:100900001092B10081E180939B0027CF409162005B
:10091000509163002091990030919A00421753073B
:1009200009F0BBCE40919E0050919F00483B5B4038
:1009300008F0B3CE40918A00416040938A00ADCE6A
:100940002AE02093A00020E12093AB0020E2209336
:10095000AC002093AD004697479730F481E00E94A9
:10096000E30110929600F9CE80E00E94E30110921C
:100970009600F3CE8091B400811106C085B58861E0
:1009800085BD81E08093B40008958091B4008823F0
:1009900031F085B58F7E85BD97981092B40008958B
:1009A00097988F9A88E085BD85B5816085BD85EA79
:1009B00083BD0895CF93DF93EC01611119C080913D
:1009C000BD00811123C088818093BC00AD818A2F36
:1009D0008F708093B5004091BC0050E041505109A8
:1009E0004032510570F08091BD00DF91CF910895A4
:1009F0008091BD00882339F38091BD008111F8CF2B
:100A0000E2CF465D5F4FFA010C943A1480E0DF912B
:100A1000CF91089529813A81C90196958795969538
:100A2000879580688093B6008B819C81AC01569538
:100A30004795569547952295220F220F207C242B0F
:100A40002093B7008295880F880F807C8093B80030
:100A500081E08093BD00C7CF8A818093BE0084303F
:100A600008F40AC5582F53502B813C814FE080E099
:100A700090E0880F991F20FD8160369527954150A1
:100A8000C1F79C0120783F77220F232F221F330BC1
:100A900031952093B600880F8093B7005523C1F29B
:100AA00029813A8145E080E090E0880F991F20FD80
:100AB0008160369527954150C1F79091B70084FB2E
:100AC000222720F9922B9093B7008295807F809304
:100AD000B800BECF89819A8140E120E030E0220F4A
:100AE000331F80FD2160969587954150C1F74B815A
:100AF0005C8160E180E090E0880F991F40FD81609B
:100B0000569547956150C1F73093B6002093B700D2
:100B10009093B800892F80958093B90081E08093ED
:100B2000BD0061CF89819A8140E120E030E0220F51
:100B3000331F80FD2160969587954150C1F74B8109
:100B40005C8160E180E090E0880F991F40FD81604A
:100B5000569547956150C1F73093B6002093B70082
:100B6000492F42954F709C01207F3327422B4093A1
:100B7000B8009C0122273F708827907F8095909530
:100B8000492F42954F70C901929582958F708927A0
:100B90009F708927482B4093B90080E09FE082270F
:100BA0009327929582958F7089279F7089278093CC
:100BB000BA0081E08093BD0016CF29813A814CE0D4
:100BC00080E090E0880F991F20FD81603695279581
:100BD0004150C1F74B815C816CE020E030E0220F96
:100BE000331F40FD2160569547956150C1F7A9011B
:100BF000407F5F70529542954F7045275F70452743
:100C00004093B6002295207FAC0144275F70252BCE
:100C10002093B7008093B80081E08093BD00E3CEBD
:100C200029813A8140E180E090E0880F991F20FD02
:100C30008160369527954150C1F74B815C8160E119
:100C400020E030E0220F331F40FD2160569547958C
:100C50006150C1F74A2F50E05595479555954795F6
:100C60005595479555954795E4E060E070E0660F2F
:100C7000771F40FD616056954795E150C1F790930D
:100C8000B6008093B700F901EF70FF27792F7295B6
:100C90007F70AC014F7055277427AC01407F5527FA
:100CA000529542954F7045275F70452774278827D6
:100CB0009F7079277295707F7E2B7093B800629534
:100CC000607F832F82958F70682B6093B900207F9F
:100CD0003F70329522952F7023273F702327209352
:100CE000BA002091B8008091B9009091BA00822793
:100CF00089278093BB0081E08093BD0074CE8091F2
:100D0000BF00882309F4ADC350E05093BF002B818E
:100D10003C8189819A8187709927482F440F440F1D
:100D2000440FC9018873992796958795969587955D
:100D300096958795482B4068452B4093B6002295A1
:100D4000220F207E2093B70081E08093BD004BCE20
:100D50008091C100882309F488C330E080E080934B
:100D6000C1002B8126FF7FC340E025FB552750F9AA
:100D700089819A818F719927880F852B942F932BC6
:100D8000892B8093B600220F220F220F2093B700E9
:100D900081E08093BD0027CE8091C200882309F4B2
:100DA0005EC320E02093C20049815A81CA01807E3F
:100DB000992796958795929582958F7089279F7030
:100DC00089278068822B8093B6002B813C81C901E2
:100DD000807E992796958795929582958F70892721
:100DE0009F708927440F440F440F482B4093B7004E
:100DF000220F220F220F2093B80081E08093BD00C4
:100E0000F2CD89819A8140E120E030E0220F331F4A
:100E100080FD2160969587954150C1F74B815C819B
:100E200060E180E090E0880F991F40FD8160569559
:100E300047956150C1F73093B6002093B700909367
:100E4000B8008093B90081E08093BD00CCCD8B8148
:100E50009C819C0120783370220F232F221F330B9B
:100E600031953981330F330F330F322B3093B60066
:100E7000282F382F330F3093B700809590958078C6
:100E80009370880F892F881F990B91959981990FDD
:100E9000990F990F982B9093B800822F8095880F07
:100EA0008093B90081E08093BD009DCD398120E021
:100EB0008B819C81822B932B60E12EEE37E840E002
:100EC00050E036952795615049F0440F551F20FF9B
:100ED000F8CF4160369527956150B9F760E120E081
:100EE00030E0220F331F80FD216096958795615079
:100EF000C1F782E08093BC005093B6004093B700E6
:100F00003093B8008BE88093B90081E08093BD00F6
:100F10006ACD8091C000882309F4ACC250E05093A0
:100F2000C0002B813C8189819A818F709927482F3D
:100F3000440F440FC90180739927929582958F7051
:100F400089279F708927482B4068452B4093B6001E
:100F50002295207F2093B70081E08093BD0043CD90
:100F60008B819C819C0136952795369527952093FA
:100F7000B6008295880F880F807C8093B70081E04F
:100F80008093BD0030CD89819A8124E040E050E01B
:100F9000440F551F80FD4160969587952150C1F7FC
:100FA0002B813C816CE080E090E0880F991F20FD50
:100FB0008160369527956150C1F79C0122273F70CB
:100FC0004295407F432B4093B6008093B70081E069
:100FD0008093BD0008CD8091C200882309F448C2E7
:100FE00040E04093C20029813A81C901882790736B
:100FF000892F992782958F70806E8093B600C901E2
:101000009F70929582958F7089279F708927809312
:10101000B7008B819C81392F32953F7029812295B1
:10102000207F232B242B2093B800807F9F709295E4
:1010300082958F7089279F7089278093B9008B8153
:101040008295807F8093BA0081E08093BD00CBCCF5
:101050008B818295880F880F807C8093B60081E019
:101060008093BD00C0CC47E02DE730E080E090E009
:10107000880F991F20FD8160369527954150C1F753
:10108000AC015695542F4427579547952B813C81A9
:1010900067E080E090E0880F991F20FD8160369521
:1010A00027956150C1F7842B952B282F220F2160A3
:1010B0002093B6000024880F991F001C880F991FE9
:1010C000001C892F902D8093B70081E08093BD0094
:1010D0008ACC89819A8148E020E030E0220F331FDA
:1010E00080FD2160969587954150C1F74B815C81C9
:1010F00068E080E090E0880F991F40FD8160569580
:1011000047956150C1F72093B6008093B70081E006
:101110008093BD0068CC29813A814DE080E090E069
:10112000880F991F20FD8160369527954150C1F7A2
:101130004B815C8168E020E030E0220F331F40FDEE
:101140002160569547956150C1F7AC01407E5F71B3
:1011500056954795529542954F7045275F704527A4
:101160004093B600682F80959095AC0144275C7140
:1011700056955695462F440F440F440F452B4093E8
:10118000B7008C7F937096958795969587958093F9
:10119000B800C9018C7F9927969587959695879574
:1011A000962F90959295990F990F907C982B9093EC
:1011B000B900822F209530952C7F332736952795BF
:1011C00036952795982F9295990F990F907C922B91
:1011D0009093BA0080958295880F880F807C8093C9
:1011E000BB0081E08093BD00FECB8B819C819C0184
:1011F000207F3F70329522952F7023273F70232741
:101200002093B6009C01207F3327329522952F70C2
:1012100023273F702327AC0144275F70422F4527C7
:101220009C012F703327FFE02F2742278295807F74
:10123000482B4093B70081E08093BD00D4CB8091D0
:10124000C300882309F409C140E04093C3002B8107
:101250003C81C90180779927929582958F70892763
:101260009F70892799819295907F982B942B9093CA
:10127000B6006ECE29813A8148E080E090E0880F88
:10128000991F20FD8160369527954150C1F74B810C
:101290005C8168E020E030E0220F331F40FD2160D8
:1012A000569547956150C1F74FEB4093B6004FEF0D
:1012B0004093B70040E84093B800A9015695479580
:1012C00040684093B900279522272795AC01569591
:1012D0004795242B2093BA0087958827879580937C
:1012E000BB0081E08093BD007ECB2B813C8149E037
:1012F00080E090E0880F991F20FD8160369527954A
:101300004150C1F72FEF2093B60020EC2093B70097
:101310009C01369527953695279520682093B8002F
:101320008295880F880F807C8093B90081E080933C
:10133000BD0059CB29813A814EE080E090E0880FD2
:10134000991F20FD8160369527954150C1F74B814B
:101350005C816CE020E030E0220F331F40FD216013
:10136000569547956150C1F78093B6001092B7002B
:101370001092B8002093B90020952093BA0081E024
:101380008093BD0030CB89819A81AC014170552793
:10139000440F551F81FD41602B813C816BE080E053
:1013A00090E0880F991F20FD816036952795615048
:1013B000C1F79C0126703327522F5295550F507E4E
:1013C0009C0120783770220F232F221F330B319579
:1013D000522B4295407F542B5093B6009C012170B4
:1013E0003327220F220F220F88779927880F282B67
:1013F0002093B70081E08093BD00F5CA49815A81EE
:10140000CA019F7096958795929582958F708927CE
:101410009F7089278093B6008B819C819C012F77D8
:10142000332736952795329522952F7023273F70C5
:101430002327440F440F440F422B4093B700982FAB
:10144000990F990F990F80FF19C080E0892B809325
:10145000B80081E08093BD00C6CA48E0F6CE28E01F
:10146000A1CC50E452CC40E880CC30E480E477CC8E
:1014700048E0B7CD50E453CD50E0F6CA84E0E6CF63
:10148000CF93DF938091BD00882359F14091640090
:101490004F3F61F18091BD00882369F01092650093
:1014A0008091BC0090E0FC013197E032F10508F436
:1014B0006CC01092BD008091BD00811112C080915E
:1014C000DC009091D000891708F063C09091BC00B7
:1014D000923109F491C18F5F8093DC0081E08093A9
:1014E000BD008091BD00DF91CF910895809165008E
:1014F000882381F25091C400552309F420C18091C2
:10150000C5009091C60001969093C6008093C500D7
:101510002091C7003091C8002115310531F02150CC
:1015200031093093C8002093C7002091C900309141
:10153000CA0082179307A8F21092C6001092C50045
:101540008091BC00883009F485C58091BC008F3043
:1015500009F4AAC58091BC00883109F403C68091C2
:10156000BC00803109F096CF852F90E00196209144
:10157000CC0030E0821793070CF060C687E18093BF
:10158000640089E28093CB0085CFE65BFF4F0C942B
:101590003A1481E08093BD008093CF001092D00078
:1015A0001092DC009ECF9091D10080916600981738
:1015B00009F431C1809164009091BC009F3009F41E
:1015C000EBC09091BC00983109F4E6C09091BC004A
:1015D000903109F4E1C08F3F09F46FC59091BC00D0
:1015E000993009F43EC59091BC00953109F439C594
:1015F000E82FE695E695E695F0E0EA54FF4F208166
:1016000030E090E0809590958770992702C03595DD
:1016100027958A95E2F721708091BC00873009F404
:1016200049C5211194C1C091D200D091D3008091BD
:10163000670090916800C817D90708F4E3C0C0910B
:10164000D100C11178C00E94BA0475C08091BC005D
:10165000883009F410C1C091D100C11168C08091D7
:1016600064008F3F09F45EC19091CB00891708F0A8
:101670001AC19091BC00933009F430C59091BC0020
:101680009B3109F476C5E82FE695E695E695F0E0FE
:10169000EA54FF4F208130E090E08095909587706C
:1016A000992702C0359527958A95E2F720FF3EC518
:1016B0002091D700209366008091D8008093670026
:1016C000109268002111BFCFC091D200D091D300F9
:1016D0008091670090916800C817D90708F492C0FC
:1016E000209164002F5F2093640030E04091CB0094
:1016F0008091DB0090E0840F911D2817390784F05A
:101700008FEF809364008091C4008F5F8093C4004A
:101710009091CC00891709F444C581E0809365005D
:101720001092D1001092D3001092D200C4CE8091BA
:101730006600C81748F6CF5FC093D100BCCE809139
:10174000CD009091CE002091C7003091C800821743
:10175000930708F4BFC08091CF008111F0C0809141
:10176000B5008F3009F4EDC48093D0001092CE0004
:101770001092CD001092D1001092D3001092D2009E
:101780008091BC0090E0FC013197E032F10508F453
:10179000E1C01092BD007ECE8F3F09F4A8C09091A9
:1017A000BC009F3009F478C49091BC00983109F4D2
:1017B00077C49091BC00903109F494C09BE0909361
:1017C00066002BE030E03093680020936700E82F3C
:1017D000E695E695E695F0E0EA54FF4F208130E08B
:1017E00090E0809590958770992702C03595279550
:1017F0008A95E2F7217015CF9091B8009F60909381
:10180000B80069CE209709F48AC02196D093D300FE
:10181000C093D20050CE2091D2003091D30080915D
:101820006700909168002817390709F0C3CE8091AE
:1018300064008F5F809364009091CB00891708F457
:101840008AC48FEF809364008091BC008F3009F4CC
:10185000B0C48091BC00883109F4ABC48091BC0055
:10186000803109F4A6C41092BD0081E08093650028
:101870000E94C50455CF8091C9009091CA0000977D
:1018800029F001979093CA008093C9008091C70006
:101890009091C800009709F4DECE01979093C8009C
:1018A0008093C700D8CE8091DB00882309F44CC018
:1018B0002091D900209366009091C4008091CC00C3
:1018C000981708F041C48091DA0080936700109265
:1018D0006800F8CE01969093CE008093CD00809161
:1018E000BD0001CE873119F08F3209F067CF20910A
:1018F000D400209366008091D5009091D6009093FB
:10190000680080936700C091D100C21708F499CE97
:10191000C091D200D091D300209709F076CF0E94D9
:10192000C50473CF2091D400209366008091D50028
:101930009091D6009093680080936700C3CE109278
:10194000BD001092CF00CDCD20916600BBCE20917E
:101950006600D9CFE659FF4F0C943A1425E0209346
:10196000D40083E090E09093D6008093D50020933C
:10197000660090936800809367001092DB0082E11C
:101980008093CB0081E08093CC001092CA0010922B
:10199000C90088EE93E09093C8008093C7008CE95B
:1019A00083BD78CD1092D4001092D6001092D5004D
:1019B0008BE08093D70099E59093D8008093D9006D
:1019C00087E28093DA0081E08093DB009CE09093D3
:1019D000CB008093CC008CEB92E09093CA00809374
:1019E000C90088E29AE09093C8008093C7008CE910
:1019F00083BD50CD23E02093D40084E190E0909308
:101A0000D6008093D50080E18093CB002093D7004F
:101A10008AE08093D8002093D90084E08093DA0094
:101A200081E08093DB008093CC001092CA0010927A
:101A3000C90080E293E09093C8008093C7008CE9CE
:101A400083BD28CD84EB8093D40089E590E090930A
:101A5000D6008093D5008BE08093D70091E29093DD
:101A6000D8008093D9008AE08093DA0081E08093E7
:101A7000DB009AE29093CB00D6CF84EB8093D40026
:101A800089E590E09093D6008093D5008BE0809319
:101A9000D70091E29093D8008093D9008AE0809398
:101AA000DA0081E08093DB0091E1E4CF2BE020932A
:101AB000D40084E390E09093D6008093D5002093E7
:101AC00066008BE090E0909368008093670010922E
:101AD000DB0087E08093CB0082E08093CC008CEB2E
:101AE00091E09093CA008093C90083E399E09093BA
:101AF000C8008093C70087EC83BDCCCC8CE2809378
:101B0000D4008EE192E09093D6008093D50082E0DD
:101B10008093CB008AE08093D70095E49093D8001F
:101B20008093D9008DE18093DA0081E08093DB001F
:101B30008093CC001092CA001092C90080EB94E010
:101B40009093C8008093C7008CE983BDA3CC85E344
:101B50008093D40081E190E09093D6008093D500EB
:101B600089E08093660089E090E09093680080931C
:101B700067001092DB0084E28093CB0081E08093C9
:101B8000CC001092CA001092C90084E893E09093B0
:101B9000C8008093C70085EA83BD7CCC8091DC00BF
:101BA00081111092640084EB8093D40089E590E069
:101BB0009093D6008093D50080E18093CB008BE09A
:101BC0008093D70091E29093D8008093D9008AE067
:101BD0008093DA0081E08093DB008093CC00109248
:101BE000CA001092C90088EB91E09093C8008093DE
:101BF000C7008CE983BD4ECC88E28093D40087E295
:101C000090E09093D6008093D5008DE08093CB0038
:101C10008CE08093D70098E09093D8008093D9000F
:101C200081E18093DA0081E08093DB00FCCE8AE2E0
:101C30008093D40082E190E09093D6008093D50009
:101C400088E28093CB0086E08093D7009DE090935C
:101C5000D8008093D90083E066CF26E02093D4009B
:101C600086E090E09093D6008093D50020936600A4
:101C700090936800809367001092DB0085E17CCF31
:101C80002BE02093D40084E390E09093D6008093DF
:101C9000D500209366008BE090E0909368008093DD
:101CA00067001092DB0081E18093CB0083E080939A
:101CB000CC0080E991E09093CA008093C90083E34F
:101CC00099E09093C8008093C7008CE983BDE2CB74
:101CD0002BE02093D40084E390E09093D60080938F
:101CE000D500209366008BE090E09093680080938D
:101CF00067001092DB008AE08093CB0082E0D7CFB0
:101D00002BE12093D40086E090E09093D60080935E
:101D1000D5002093D70086E08093D8008AE0809396
:101D2000D90099E19093DA0091E09093DB008093E1
:101D3000CB0082E08093CC008CEB92E09093CA00C1
:101D40008093C9009093C8008093C70085EA83BD43
:101D5000A1CB23E02093D40088E490E09093D600B8
:101D60008093D5002093D70084E98093D8002093F6
:101D7000D90081E68093DA0081E08093DB009CE06B
:101D80009093CB008093CC001092CA001092C900AF
:101D900084E893E09093C8008093C7008CE983BDEA
:101DA00079CB8AE58093D40089E590E09093D600C2
:101DB0008093D5008BE08093D70090E29093D80079
:101DC0008093D9008AE08093DA0081E08093DB0081
:101DD0009093CB008093CC008CEA93E09093CA0060
:101DE0008093C9009093C8008093C7008CE983BD9D
:101DF00051CB85E38093D40081E190E09093D600AD
:101E00008093D50089E08093660089E090E030CF30
:101E10001092D4001092D6001092D50086E08093E4
:101E2000D70093E29093D8008093D9008EE08093FE
:101E3000DA0081E08093DB008FE08093CB0082E0CA
:101E40008093CC0084E195E09093CA008093C90010
:101E500088E29AE09093C8008093C70085EA83BD2A
:101E600019CB22E12093D40082E190E09093D60038
:101E70008093D5002093660090936800809367005C
:101E80001092DB008DE078CE23E02093D40084E92B
:101E900090E09093D6008093D5002093D70084E9FA
:101EA0008093D8002093D90081E68093DA0081E006
:101EB0008093DB009AE064CF84E48093D40081E2D5
:101EC00090E09093D6008093D50088E08093D7006F
:101ED00098E19093D8008093D90087E08093DA004E
:101EE00081E08093DB0080E38093CB008091DC0075
:101EF0008111CAC182E08093CC0088EC95E0909378
:101F0000CA008093C9009093C8008093C7008CE9F1
:101F100083BDC0CA86E48093D40085E490E09093AA
:101F2000D6008093D50081E18093D70093E390930E
:101F3000D8008093D90080E18093DA0081E080931B
:101F4000DB0098E19093CB008093CC001092CA0004
:101F50001092C90080E293E09093C8008093C7007C
:101F600085EA83BD97CA8AE58093D40089E590E02D
:101F70009093D6008093D5008BE08093D70090E2B9
:101F80009093D8008093D9008AE08093DA0081E0B2
:101F90008093DB0095E29093CB008093CC0010926D
:101FA000CA001092C90084EF91E09093C80080931A
:101FB000C7008CE983BD6ECA84EB8093D400809106
:101FC000DC00882309F462C18CE290E09093D60093
:101FD0008093D5001092CB008BE08093D70091E2E4
:101FE0009093D8008093D9008AE08093DA0081E052
:101FF0008093DB0018CD80E38093D4008BE090E0E9
:102000009093D6008093D50088E18093D7008BE031
:102010008093D8009CE09093D9008093DA001092CE
:10202000DB008091BE00845F8093CB008091DC0058
:10203000811128C183E08093CC0084EF91E09093DC
:10204000CA008093C9009093C8008093C70085E9B7
:1020500083BD20CA80E1809364008FE18093CB0030
:1020600019CA99E09093660029E030E03093680047
:10207000209367009091BC00993009F4D2C084305D
:1020800009F4E3C0853009F0B3CA22E130E03093AF
:10209000680020936700ACCA8F3009F085CB27CC4D
:1020A000873009F086CB23CC809364008AE180934B
:1020B000CB00F0C981E02827B4CA8091BC008930E8
:1020C00009F494C08091BC00853109F48FC08091DF
:1020D000BC00803209F4D2C021E09ECA803138F0C1
:1020E000803109F4C5C0853208F02ECC81509BE0C8
:1020F00090936600E82FE695E695E695F0E0EA54C1
:10210000FF4F208130E090E080959095877099276F
:1021100002C0359527958A95E2F720FF47C080E2F7
:1021200090E090936800809367008DCA2091D90059
:10213000209366008091DA00809367001092680017
:10214000C1CA4093D00012CB8FEF90E0909368000B
:1021500080936700B7CA1092D1001092D3001092FA
:10216000D2002ACA87E0809364008FE08093CB007E
:1021700091C9883008F048C09BE090936600209198
:10218000B60030E090E0809590958770992702C066
:10219000359527958A95E2F720FF08C081E290E007
:1021A000C0CF1092BD001092C400B7CA8AE090E080
:1021B000B8CF2091C4002F5F2093C4003091DC0081
:1021C000332331F083E399E09093CA008093C900F0
:1021D0008091D000381708F042C08091CC008F5F0A
:1021E0008093CC003F5F3093DC003FCB8091D400E4
:1021F000809366008091D5009091D60090936800FE
:102200008093670021E008CA883091F1813108F09D
:102210009BCB9BE0909366002091B70030E081500B
:10222000B1CF843009F0E4C992E19093660022E1D5
:1022300030E03093680020936700DAC98FEF809315
:10224000640081E18093CB0025C99BE190936600F7
:1022500022E130E03093680020936700C9C9809183
:10226000CC00281302CB1092BD001092C400FDCA0E
:102270008BE08093660089E590E053CF1092640074
:1022800021E0CAC981E0D7CE81E035CE89E590E072
:102290009093D6008093D50080E28093CB009CCEB3
:1022A000982F9150923010F080E008951AB8813044
:1022B00071F08CE089B910BC599A88E98AB986E82E
:1022C00080BD61E081E00E945E1381E008958BE9AA
:1022D00089B9F1CF1F920F920FB60F9211242F934D
:1022E0003F934F935F936F937F938F939F93AF939E
:1022F000BF93EF93FF930E94400A882309F440C0E4
:102300008091DD00982F9F5F9093DD00883C38F12D
:102310009FB7F8948091E30081608093E3009FBFB2
:102320001092DD008091DE00982F9F5F9093DE0079
:102330008436A8F01092DE008091DF009091E000DA
:10234000A091E100B091E2000196A11DB11D809322
:10235000DF009093E000A093E100B093E200FF91D2
:10236000EF91BF91AF919F918F917F916F915F910D
:102370004F913F912F910F900FBE0F901F90189586
:102380000E94C102BDCF1092DD001092DE001092BB
:10239000DF001092E0001092E1001092E200109233
:1023A000E3001092E4000E9465020E94D00487E5D9
:1023B00092E09BBD8ABD89E08EBD80E189BF82E04D
:1023C0000E94501178940E94A70181E090E0089546
:1023D00080538A3020F08151863010F08FEF0895BD
:1023E000865F0895EF92FF920F931F93CF93DF9331
:1023F000EC018B01F42EFA944423A9F088810E9409
:10240000E811E82EE29480EFE822F801E082898169
:1024100022960E94E8118E29F80181938F01FA9487
:10242000FFEFFF12EBCFDF91CF911F910F91FF9044
:10243000EF900895FB01292F22952F702A30E0F4A8
:10244000205D2083292F2F702A30E0F4205D218326
:102450009C01329522952F7023273F7023272F70E0
:102460002A3090F4205D22838F708A3090F0895C4E
:1024700083831482CF010895295C2083292F2F7034
:102480002A3020F3295CE3CF295C22838F708A30C5
:1024900070F7805D83831482CF010895FB01982F2C
:1024A00092959F709A3050F4905D90838F708A302F
:1024B00050F0895C81831282CF010895995C9083EA
:1024C0008F708A30B0F7805D81831282CF010895CA
:1024D000EAEFF0E020E030E08081882371F02F5FA8
:1024E0003F4F789624303105B9F71092460110928B
:1024F0004501E0E0F0E0CF010895F901EE0FFF1F84
:10250000E20FF31FEE0FFF1FEE0FFF1FEE0FFF1F77
:10251000EB51FF4FF0934601E093450181E0858B3D
:1025200080914801878B8F5F80934801CF01089588
:102530001F920F920FB60F9211242F933F934F9338
:102540005F936F937F938F939F93AF93BF93EF931B
:10255000FF938BB19CB18BB18871B1F05F9B03C0CD
:102560008CB15F99FDCFFF91EF91BF91AF919F919A
:102570008F917F916F915F914F913F912F910F902C
:102580000FBE0F901F9018959230A9F09330F9F07C
:10259000E0914501F09146018589813021F78689D6
:1025A000853108F73097F9F2DF01A80FB11D9C9330
:1025B0008F5F868BD8CFE0914501F091460130972F
:1025C00019F085898130C1F00E946812CCCFE0916A
:1025D0004501F09146018589813029F68689882355
:1025E00059F082E0858B9FB7F8948091E300826078
:1025F0008093E3009FBFB7CF168AB5CFFC01178A3F
:10260000168A158A85E111928A95E9F708951F9334
:10261000CF93DF93162F1F5F193168F4EEE5F1E0D9
:1026200020E030E04081442359F02F5F3F4F7896FF
:1026300024303105B9F780E0DF91CF911F910895E3
:10264000E901CC0FDD1FC20FD31FCC0FDD1FCC0F54
:10265000DD1FCC0FDD1F9E012B513F4FF901E758C5
:10266000FF4F41E040834091A901F901E558FF4F38
:1026700040834F5F4093A901C75BDE4FE1F2412FDA
:1026800050E0BC01CE010E9449141E8B82E08D8B6C
:102690009FB7F8948091E30084608093E3009FBF2C
:1026A00081E0DF91CF911F910895FC01178A168A6E
:1026B000158A85E111928A95E9F708950F931F9382
:1026C000CF93DF93062F1FB7F894813041F001308C
:1026D00039F11FBFDF91CF911F910F910895109293
:1026E00047011092480185EE90E090934601809357
:1026F0004501C0E0D0E0CE01880F991F8C0F9D1FCF
:10270000880F991F880F991F880F991F8B519F4F12
:102710000E94FE122196C430D10569F70130C9F636
:102720001092A9011092AA01C0E0D0E0CE01880F5A
:10273000991F8C0F9D1F880F991F880F991F880F55
:10274000991F875B9E4F0E9455132196C430D10577
:1027500069F71FBFDF91CF911F910F910895CF931C
:10276000DF932091AA018091A901821709F448C042
:10277000D2E0C3E0E0E6F1E080E090E030812317B2
:1027800059F00196789684309105C1F761E080E0B8
:10279000DF91CF910C945E13DF0112973C913230A0
:1027A00081F7FC01EE0FFF1FE80FF91FEE0FFF1F6F
:1027B000EE0FFF1FEE0FFF1FE75BFE4F39F35D9B30
:1027C000FECFDCB98689882361F080E0DF01A80FA5
:1027D000B11D9C915D9BFECF9CB98F5F9689891737
:1027E000A8F35D9BFECFCCB9CF010E945513209179
:1027F000AA012F5F2093AA018091A9018213BACF69
:10280000DF91CF910895CF93DF9350914701ECEF83
:10281000F0E020E030E04081451751F02F5F3F4F5E
:10282000789624303105B9F780E0DF91CF91089593
:10283000DF0112974C91423089F75F5F5093470157
:10284000E901CC0FDD1FC20FD31FCC0FDD1FCC0F52
:10285000DD1FCC0FDD1FCB51DF4F31F34E8950E030
:10286000BE010E944914CE010E94FE1281E0DF9158
:10287000CF910895EE0FFF1F0590F491E02D09947C
:10288000FB01DC0102C005900D9241505040D8F789
:102890000895FB01DC0102C001900D9241505040AF
:0828A000D8F70895F894FFCF6A
:1028A800FFFFFFFFFF01FFFF0056302E33003232DB
:1028B8002E30352E32303134002049724D6F647518
:0A28C8006C652072656164792100DF
:00000001FF
