:100000000C9456010C9473010C9473010C947301BD
:100010000C9473010C9473010C9473010C941F1EC7
:100020000C9473010C9473010C9473010C94730180
:100030000C9473010C94701F0C9473010C94730155
:100040000C9473010C9473010C9473010C94730160
:100050000C9473014D119711C31110124712B7126E
:10006000E112731310134913A813DD1305141011B3
:10007000E115A2157416081635161A1446148914BB
:100080001011961410111011CD14EC145A1583157B
:1000900010112711AA17AA17AA17AA17AA17AA1781
:1000A0005417AA175417AA17D516AA17AA17D516A0
:1000B000541754175417AA17AA17AA175417AA1790
:1000C000D5165417D516D516AA17AA17AA17AA1700
:1000D000D5165417B31C941C6B1C421C131CFB1B21
:1000E000E81BBF1BA91B811B4818591B301B481854
:1000F000181BF01ADD1AC71AAC1A7D1A561A2D1AD7
:100100004818051A48184818EA19CF19A7197F196D
:1001100048185B1912030A0A12030A0106000E149A
:10012000202801010013090F050D090F0C1800000C
:10013000000D0D01010001151B0A0E0A0E0A0E0F1B
:1001400014000F14000100020710172D07100710EC
:1001500000101020200101001C0710172D071007A8
:1001600010000D1A222A010100020710172D071096
:100170000710000000000001010016070D375507A9
:100180000D1725000000020201000003070F162CC6
:10019000070F070F00101525250101000409191E7E
:1001A0004A091909190C18000C1801010005030E61
:1001B0001122030E030E00101C283001010006025C
:1001C0000485A50204576D0104040A0A0100000712
:1001D0000F150F15000000000107070D0D000001AD
:1001E0000805081F2805080C110005050F0F010060
:1001F000001E090D5064090D232D0004050C0C018F
:1002000000001F070F1326070F050C000000101039
:1002100001010009070F070C00000000050D0D1576
:10022000150000030C020485A50204576D020606A2
:100230000C0C0100000D14210409070D142000000E
:10024000000A0A0100000F090D090D00000000005E
:1002500000010B1100010317040704070000000050
:100260000009091116000003190306354303061897
:10027000200105050C0D0100001A100410041004E3
:10028000100400030310100001041D0105061001F5
:1002900005020800000010100100002003080105FD
:1002A00000000000010909111100000311241FBE04
:1002B000CFE5D8E0DEBFCDBF11E0A0E6B0E0E0EDD5
:1002C000F3E402C005900D92AE33B107D9F712E006
:1002D000AEE3B1E001C01D92A338B107E1F70E947F
:1002E000AF210C94E6210C9400000E949D200895FB
:1002F0000F931F93CF93DF93CDB7DEB765970FB6FC
:10030000F894DEBF0FBECDBF8C0182E7898380E702
:100310008A83F8018081BE016D5F7F4F0E94291F93
:1003200081E68D83F80181819281BE016A5F7F4FF2
:100330000E94F51E83E68A87F80183819481BE01BD
:10034000655F7F4F0E94F51E86E68F87F8018581E5
:10035000BE01605F7F4F0E94291FCE01019660E1C0
:100360000E94402065960FB6F894DEBF0FBECDBF49
:10037000DF91CF911F910F910895CF93DF9300D01C
:1003800000D000D0CDB7DEB7CE0101960E94F804B0
:10039000CE0101960E94780126960FB6F894DEBF32
:1003A0000FBECDBFDF91CF910895CF93DF93CDB72F
:1003B000DEB765970FB6F894DEBF0FBECDBF86E7F8
:1003C0008983DE011296E0E6F0E085E001900D926F
:1003D0008150E1F78DE28E83DE011796E5E6F0E0CD
:1003E0008BE001900D928150E1F7CE01019661E121
:1003F0000E94402065960FB6F894DEBF0FBECDBFB9
:10040000DF91CF910895CF93DF93CDB7DEB76D978E
:100410000FB6F894DEBF0FBECDBFCE0109960E9485
:100420004F218823C9F089858337F9F0863761F039
:10043000823699F728E088E190E00FB6F894A89505
:1004400081BD0FBE21BDFFCF0E94D501CE0109960F
:100450000E944F21882339F76D960FB6F894DEBFBE
:100460000FBECDBFDF91CF910895CE010B96BE0197
:100470006F5F7F4F41E00E94BD1E89818B83CE015B
:100480000E96BE016F5F7F4F42E00E94BD1E8981C4
:100490009A819827892798279D838C83CE0143963C
:1004A000BE016F5F7F4F42E00E94BD1E89819A812D
:1004B0009827892798279F838E83CE014896BE016F
:1004C0006F5F7F4F41E00E94BD1E89818887CE010A
:1004D000039661E00E94F710A0CF80E790E06FE004
:1004E0000E9440208091BB0180FF08C09FB7F89414
:1004F0008091BB018E7F8093BB019FBF8091BB0128
:1005000081FF0AC09FB7F8948091BB018D7F8093D3
:10051000BB019FBF0E9403028091BB0182FF0AC002
:100520009FB7F8948091BB018B7F8093BB019FBFE5
:100530000E94FB208091BB0187FFD4CF9FB7F89426
:100540008091BB018F778093BB019FBF0E94BD014B
:10055000C9CF8435910509F4C5C085359105D8F01A
:10056000893B910509F4C2C08A3B910508F447C054
:100570008E3B910509F4C1C08F3B910508F483C0FF
:1005800024E08030920709F4A5C0E8E080309E079F
:10059000D1F48FE908958B34910509F4A5C08C340A
:1005A000910508F442C08035910509F484C0813575
:1005B000910508F050C08C34910509F482C08F3445
:1005C000910509F47CC087FDB4C09C0120573040E0
:1005D0002031310508F4AFC020913E0180349105EF
:1005E00008F0ABC0287109F4A4C0039782339105C9
:1005F00008F0B0C08F579F4FFC0180810895893566
:10060000910509F46DC08A35910508F44BC08E360A
:10061000910509F452C08C3A9105A9F680913E01EA
:100620008E7F80933E0180E008958A33910509F41E
:100630004AC08B339105C0F08C33910509F472C028
:100640008E33910509F0BFCF80913E018061809388
:100650003E0180E0089581359105F1F183359105E2
:1006600009F0B1CF85E908958C32910509F44CC0A9
:100670008933910509F0A7CF80913E018260809374
:100680003E0180E008958A3B910509F444C08C3B0B
:10069000910509F098CF80913E01877F80933E01BC
:1006A00080E0089585359105C9F08635910509F0FA
:1006B0008ACF88E9089583E908958BE1089582E956
:1006C000089581E9089580913E01846080933E0100
:1006D00080E008958EE9089584E9089587E90895F2
:1006E00089E9089586E9089580E9089580913E0199
:1006F0008D7F80933E0180E0089580913E018F7E42
:1007000080933E0180E0089580913E018160809356
:100710003E0180E0089580913E018B7F80933E01F1
:1007200080E0089580913E01886080933E0180E0E2
:10073000089580E00895805F089530E022FF0CC0A6
:100740008D549F4FFC018081982F91569A3118F457
:100750008056089580E0089523703070211531058A
:1007600041F0E0E4F0E0ED54FF4FE80FF91F808125
:100770000895E0E0F0E0F7CFCF93DF93CDB7DEB799
:1007800028970FB6F894DEBF0FBECDBF49835A83BA
:100790006B837C838D839E83423151F080E0289669
:1007A0000FB6F894DEBF0FBECDBFDF91CF91089595
:1007B0008C819D812F8338870E94A902982F2F81D9
:1007C0003885F901808381E0992349F7E7CF982F95
:1007D0008091550160917101882319F46F3009F4FB
:1007E000D3C070917A01871708F45DC020917B0116
:1007F000821708F058C020918001222309F4CAC052
:10080000292F30E0482F50E0471B510902C0220F2A
:10081000331F4A95E2F740914E0150914F01422B10
:10082000532B50934F0140934E016C3109F47AC021
:10083000633009F45DC0653091F5282F24512430D0
:1008400008F48CC0282F2851243080F4292F30E060
:10085000482F50E04451504002C0220F331F4A95A8
:10086000E2F730915001322B309350018033B8F4CD
:10087000E82FE695E695E695F0E0EA57FE4F9923D6
:1008800009F0A6C0982F977021E030E002C0220F37
:10089000331F9A95E2F720959081292320838F5F5B
:1008A00080935501089570917C01871708F4BDCF9E
:1008B00020917D01821708F0B8CF2091800122237A
:1008C00009F477C0292F30E0482F50E0471B510929
:1008D00002C0220F331F4A95E2F740914C0150911C
:1008E0004D01422B532B50934D0140934C019DCF12
:1008F0008131A8F2853198F6492F50E0282F30E059
:100900002151304002C0440F551F2A95E2F7209133
:10091000830130918401242B352B30938401209363
:100920008301BDCF8D3008F4BACF8A3108F0B7CF3C
:10093000492F50E0282F30E02D50304002C0440FA6
:10094000551F2A95E2F72091530130915401242B31
:10095000352B3093540120935301A1CF492F50E000
:10096000282F30E02850304002C0440F551F2A95F0
:10097000E2F720914C0130914D01242B352B30931F
:100980004D0120934C0172CF909382018F5F809331
:1009900055010895292F30E040914E0150914F01AB
:1009A000440F551F242B352B30934F0120934E01BC
:1009B0003CCF292F30E040914C0150914D01440F24
:1009C000551F242B352B30934D0120934C012DCFF7
:1009D000982F977021E030E002C0220F331F9A95C4
:1009E000E2F79081922B90835ACFC098B8980895DF
:1009F000FC0180914701882339F1809146018731BC
:100A0000B9F1883118F5873009F450C0883008F002
:100A1000A8C0823009F42FC1833009F050C0209162
:100A20004201309143018091420190914301232F73
:100A300033278095909590702817390709F456C18F
:100A400080E010924701089580E008958A3109F40A
:100A500054C08B3108F0C0C0883109F43CC18931E1
:100A600071F58091420190914301009741F5E8CFE3
:100A700080914201909143012091420130914301C4
:100A800031E020FD31C121E02327969587958170C3
:100A900090702817A9F28091420190914301969598
:100AA0008795909343018093420109C0809144014E
:100AB000909145018F7D90934501809344018091F1
:100AC0004601808380914401909145019283818306
:100AD00080914201909143019483838380913F01EF
:100AE00085831092430110924201109245011092A9
:100AF000440110923F0181E0A4CF80914201909186
:100B0000430194FF9DCF80914201909143018F71E9
:100B100090708531910509F403C180914201909153
:100B200043018F7190708031910509F089CF8091D8
:100B300042019091430196958795929582958F7089
:100B400089279F7089279093430180934201809168
:100B50004201909143018068909343018093420148
:100B6000AECF813109F484CF833109F0A8CF8091D1
:100B70004201909143018C7090709695879596955F
:100B80008795909345018093440180914201909113
:100B90004301209142013091430140914201509123
:100BA000430123703070322F222780709071969508
:100BB000879596958795282B392B407F5F705295A6
:100BC00042954F7045275F704527242B352B309376
:100BD00043012093420173CF8D31A9F08F3109F089
:100BE0006ECF20914201309143018091420190915A
:100BF0004301232F3327809590959070281739074C
:100C000009F01ECF5EC06091420170914301409196
:100C10004201509143018091420190914301209102
:100C20004201309143012F703070672F62956F70D1
:100C30007FE0672740705F706527807F9070929596
:100C400082958F7089279F7089276827862F90E06B
:100C50002817390709F0F4CE8091420190914301A1
:100C6000929582958F7089279F7089279093430171
:100C70008093420124CF2091420130914301809121
:100C8000420190914301232F3327809590959070D6
:100C900028173907B1F0809144019091450127E868
:100CA0008E3E920709F0CCCE8BE080934601809176
:100CB000420190914301892F992790934501809398
:100CC00044018091420190914301907090934301BF
:100CD00080934201F4CE80914201909143018D377F
:100CE000910509F0ECCEACCE30E0CDCE8091420142
:100CF0009091430190709093430180934201209121
:100D00004001309141018091420190914301322F85
:100D10002227282B392B3093430120934201CFCE39
:100D20008091420190914301969587959295829585
:100D30008F7089279F708927909343018093420188
:100D400080914201909143018F779070909343017D
:100D500080934201B4CECF93DF9396B38091470145
:100D60008823E9F5892F817060914801962F6623C9
:100D7000D9F5882309F421C180914901882309F01C
:100D8000AEC18091590190915A012FEF8F3F920788
:100D900031F1019690935A0180935901809133016A
:100DA000909134013FEF8F3F9307C9F001969093E4
:100DB00034018093330165E08739960780F0809194
:100DC0005B0190915C01009751F010925C011092D0
:100DD0005B018FEF9FEF90933401809333018091FB
:100DE0004701DF91CF91089520914A01222311F10B
:100DF000882309F4ECC08091560190915701019627
:100E00009093570180935601209149012252253138
:100E100008F05BC232E08F34930708F46CC0809115
:100E20004601109248011092490110925701109208
:100E30005601D5CF20914B01222309F445C18823C7
:100E400009F0C3C1A0918101B0E09D012170307013
:100E50002115310509F0F8C1A2FD68C18091710129
:100E6000833009F479C68C3109F49DC6209149017B
:100E7000309172012317A8F030917301321788F076
:100E800040915601509157016091740170E04617EE
:100E9000570738F06091750170E06417750708F026
:100EA00066C4309176012317B0F030917701321784
:100EB00090F040915601509157016091780170E097
:100EC0004617570740F06091790170E06417750785
:100ED00010F00C949310893109F4FBC6109248016C
:100EE000109257011092560160E081E08093490111
:100EF000662309F474CF4091550180917E018417D7
:100F000009F06DCF80917F01882309F068CF20918F
:100F100035013091360180914C0190914D01281797
:100F2000390709F47CC310928501809171018130E9
:100F300009F45FC2853009F4D8C38A3009F0DEC2F3
:100F40008091850180FF5BC210925A011092590175
:100F5000809147018823E1F080914C0190914D01EF
:100F600020913501309136012817390709F4DAC488
:100F700020914E0130914F01309338012093370179
:100F8000909336018093350110925A0110925901C5
:100F90001092480110924D0110924C01109249019B
:100FA000109257011092560180914601843109F048
:100FB00016CF83EB8093490112CF809149018F5F57
:100FC0008093490180914701DF91CF91089510925C
:100FD0005D0180914901282F2A522D3008F041C02F
:100FE000409156015091570149305105D0F14E3092
:100FF0005105B8F566E371E081E791E041E150E029
:101000000E94D421109255014091810140FF92C16C
:1010100080917101873109F48DC1893009F48AC149
:1010200020917301809156019091570130E028176B
:10103000390730F4220F331F2817390708F06BC522
:1010400080917001882309F41BC581E080934901D8
:10105000109257011092560110924A016091480176
:1010600047CF30914601343109F435C1382F3D570F
:101070003F3678F440915601509157014E33510557
:1010800008F47FC24737510508F07FC268E571E078
:10109000B3CF30914601343109F436C1382F325282
:1010A000353108F05FC1409156015091570161E020
:1010B000413B560708F456C132E04C38530708F05C
:1010C00051C16AE771E098CF882309F072C080911E
:1010D00049018F5F80934901409155010ECF81E016
:1010E0008093480180934A0110924B0110924D0168
:1010F00010924C0110924F0110924E01109250012B
:101100001092520110925101109254011092530109
:101110008FEF8093550181E090E090935701809389
:101120005601109258015BCE1092490180917E01C8
:1011300040915501481708F5C091490190917301FC
:101140009C17D8F481E00E94E70380917201C817D0
:1011500058F3C81BC093490180917E01409155010D
:10116000481750F30AC0C81BD90BD0935701C0933E
:10117000560180917E0140915501481708F0FAC24E
:10118000C0915601D09157018091750190E08C1764
:101190009D0708F0EFC280E00E94E7038091740190
:1011A00090E0C817D907F8F610925701109256012F
:1011B000E0CF81E080934B0181E090E09093570174
:1011C000809356014091550198CE70917E014091D7
:1011D0005501741709F4A2C2E0915601F09157012C
:1011E0003196F0935701E0935601509171015130BF
:1011F00009F4C5C2A0918101B0E0A2FF03C05A3139
:1012000009F442C45F3009F40DC3573109F44EC3E9
:10121000A0FF99C18091750190E0880F991FE81790
:10122000F90708F490C1242F30E0872F90E002974F
:10123000281739070CF487C180917F01882309F0B2
:1012400082C181E080937F01C09149018091730147
:101250008C1708F0BCC280917101893029F480910B
:101260005501843009F43EC681E0A1FD80E00E9472
:10127000E70380917101893029F480915501843010
:1012800009F447C69091810181E091FF80E00E94BE
:10129000E7039091810181E091FF80E080937001EC
:1012A00040915D018091560190915701423109F4BE
:1012B000B0C3433109F45FC390936F0180936E0113
:1012C00010924B016091480110CE21E087339207C4
:1012D00008F0A5CD10CE482F50E04B3651050CF448
:1012E000C5CE4E3F51050CF0C1CE409156015091F4
:1012F00057014D34510508F4B9CE4D3D510508F064
:10130000B5CE67E471E078CE482F50E04D375105F7
:101310000CF4C4CE4C3E51050CF0C0CE40915601A9
:10132000509157014730510508F4B8CE413151056D
:1013300040F3B4CE42FD89CE80917101883009F42A
:10134000DAC18E3109F081CE80915601909157011A
:10135000805590408531910508F0D6C181E00E940A
:10136000E70373CE382F3055353168F4409156017C
:10137000509157014035510530F04536510518F46C
:101380006BE871E039CE382F37533F3168F4409124
:101390005601509157014733510530F046355105FC
:1013A00018F46CE971E028CE382F3C53303168F4E2
:1013B00040915601509157014D31510530F047325F
:1013C000510518F46DEA71E017CE382F32503330E2
:1013D00008F098C040915601509157014538510589
:1013E00008F490C0463A510508F08CC06EEB71E0ED
:1013F00003CE809185018150823008F4A5CD81E033
:10140000809347019FB7F8948091BB0180688093D7
:10141000BB019FBF60917101683009F426C26F3033
:1014200009F49BC2603109F4E3C2623009F006C1DD
:1014300080915501882309F003C180915901909151
:101440005A0129E08036920708F07DC57091370176
:101450009091380170934E0190934F015091350156
:101460004091360150934C0140934D0180913F01D2
:10147000816080933F0110925A0110925901272FE9
:10148000392F852F942F693009F4EDC260934601FE
:10149000623109F016C1AC014F7050704115510511
:1014A00009F4E2C3AC01529542954F7045275F7035
:1014B00045274068C901880F991F880F991F8070C0
:1014C0009F70842B952B90934D0180934C012F732B
:1014D000307030934F0120934E013093450120939B
:1014E0004401909343018093420180918301909144
:1014F000840190934101809340012ACD8D3009F001
:101500007ECF1ECD482F4051453008F44AC040518F
:10151000493008F446C0982F9550943008F0EAC13D
:101520004091560150915701BA016F5170406A3095
:10153000710530F04C5050404630510508F0DAC18A
:1015400060EE71E059CD81E0E733F80708F4D0CCC4
:10155000842F90E0272F30E02150304082179307EE
:1015600009F4DDC2523009F45AC35C3109F484C372
:1015700010924801109249011092570110925601A1
:101580002ECC4E31510508F484CD4C33510508F072
:1015900080CD80914601843109F4B3CE69E671E0D3
:1015A0002BCD4091560150915701BA0160517040C6
:1015B0006530710538F0BA016052704069307105CC
:1015C00008F0A9CF282F2752263038F44131510591
:1015D00020F04531510508F4DBC4282F23522B306D
:1015E00038F44332510520F04E32510508F4E1C47D
:1015F00050936F0140936E018551843108F488C087
:10160000455150404431510508F482C081E0809337
:101610007001992309F4F6CC6FEC71E0EDCC809168
:10162000590190915A0126E08034920708F07BCC52
:10163000809185018F5F8093850177CC653049F07B
:1016400020914E0130914F0180914C0190914D01BC
:101650001ACF909186018091870140918801292FAE
:1016600022952F709F702927982F9F702927829588
:101670008F70282730E0842F90E08F7090702817AB
:10168000390711F0109247018091890184279091C8
:101690008A01892790918B01981711F010924701C8
:1016A00080913F0190915001892B80933F0180915F
:1016B0004C0190914D0120914E0130914F0160936A
:1016C00046013093450120934401623009F4C6C1BC
:1016D000673009F006CF2091580130E0822B932B20
:1016E00090934D0180934C01FCCE80918501813017
:1016F00009F085CE29CC80915601909157014F97E2
:101700008A30910508F42ACE80E00E94E7039DCC40
:101710001092700180E4809358017BCF80917F010B
:10172000813009F059CD80918101857061F48091FB
:10173000490190917601891708F41ACF90917701A9
:10174000981708F415CF10927F01D2CB8AE08093CE
:10175000710180E180937C0180E280937D01809320
:101760007E01265130402731310508F0DCC481E08C
:101770000E94E70310924B0160914801B6CBEF3015
:10178000F10508F437CD4B3008F434CD842F8F5F4A
:1017900080937E01242F30E02B503040722F66273B
:1017A00020914E0130914F01262B372B30934F0162
:1017B00020934E0180917C01840F8F5F80937D0187
:1017C0002DE030E030935701209356013BCB8091C0
:1017D0007201C81708F47DC02091750180916E01D7
:1017E00090916F0130E02817390708F02AC3220FC3
:1017F000331F2817390708F424C381E09091700142
:10180000911180E08093700190917101993009F4F9
:1018100019C40E94E70340915D01809156019091A7
:10182000570144CD80917F01882309F0F1CCE33347
:10183000F10528F0842F8550823008F452C420919D
:10184000750130E0220F331FE217F30708F4D5C209
:10185000483008F44DCB8AE080937E0181E080938C
:101860007F019D0121703070F3CA20914C013091AD
:101870004D01C90180959095937040915B01509105
:101880005C018417950709F46BC2C90183709070DD
:10189000009709F083C130935C0120935B011092A3
:1018A0003401109233011092470152CB80917F0195
:1018B000882309F0ADCC2091750130E0220F331F51
:1018C000E217F30708F4C0C24F3008F411CB81E1EE
:1018D000C3CF40915D01423109F459C2433109F44B
:1018E00074C210924801109257011092560180E084
:1018F00090E0DCCC982F9950953008F0D4C04091FE
:10190000560150915701BA0160557040653171051B
:1019100030F0435250404B30510508F0C4C061EFE5
:1019200071E06ACB409137015091380120914E010E
:1019300030914F014217530709F01ECB40915901D6
:1019400050915A016BE0483B560708F015CB409187
:101950003F01416040933F010FCB80914C0190913A
:101960004D0131E08F3F930709F49DCF20914E0147
:1019700030914F0188CDC0914901D0E0C930D105E7
:101980000CF49ACCC031D1050CF096CC9C012550BA
:1019900030402930310508F4CFC30C978D309105C4
:1019A00018F480E00E946E21809171018823D9F49F
:1019B000A1E7B1E0EDE5F1E081E101900D92815008
:1019C000E1F710925D018091530190915401909341
:1019D0004F0180934E01809151019091520190935B
:1019E0004D0180934C01809156019091570164CC38
:1019F00020914E0130914F0180914C0190914D0109
:101A00002F3F310509F03FCD8E3F910509F03ECDC6
:101A10004ACFC0914901D0E0C330D1050CF44CCC81
:101A2000CB30D1050CF048CC9C012A5030402930F5
:101A3000310508F485C301978630910518F480E0DC
:101A40000E946E2180917101882309F4D7C24091D0
:101A50005D0180915601909157012BCC3093380154
:101A6000209337013ECD40917E01443209F027CECC
:101A700045E140934601309345012093440131CD27
:101A800081E041FD42CE40CE20E130E0241B31090F
:101A900022953295307F3227207F3227E217F307D5
:101AA00008F4B6CBD2C9482F4E50403168F440916B
:101AB0005601509157014331510530F047325105DD
:101AC00018F462E072E098CA482F4F524E30A0F4EA
:101AD00040915601509157014F30510568F0463101
:101AE000510550F410926F0110926E0181E08093C5
:101AF000700163E172E080CA3330D0F44091560146
:101B0000509157014434510598F04E34510580F4FA
:101B100064E272E071CA81E041FFF7CDF5CD8091BA
:101B20007F01882309F01ECD4F5F40935501E0C926
:101B3000382F34513E3008F059C040915601509131
:101B400057014430510508F451C04A30510508F09E
:101B50004DC065E372E050CA40915501403109F033
:101B600085C9809149018750893008F0B7C9209113
:101B70005601309157012035310508F4E7CD25365F
:101B8000310508F0E3CD10924B01109284011092C0
:101B9000830181E180935501692FA7C910925C01EF
:101BA00010925B0180CE40915501483009F05EC92A
:101BB00020915601309157012E33310508F456C952
:101BC0002737310508F052C98BE1809371011092DB
:101BD0007A0140937B0140937C0180E180937D01F9
:101BE00080937E0110924B01692F7FC9953008F0D8
:101BF00099C040915601509157014B32510508F45C
:101C000091C04134510508F08DC050936F0140934D
:101C10006E0181E08093700166E472E0EDC9842F6B
:101C20008051823008F0A4CC51E050937F0184E1D0
:101C30008093710140937E0180914E0190914F01FC
:101C40009C01329522952F7023273F7023273093D4
:101C50004D0120934C018F70907090934F018093B1
:101C60004E015093480149C9AC01529542954F70BD
:101C700045275F7045271ECC403209F4FEC1842FF2
:101C80008051823008F074CC81E080937F0184E140
:101C90008093710140937E0140914E0150914F011C
:101CA00080915301382F330F20E0CA01929582951D
:101CB0008F7089279F708927822B932B90934D01DA
:101CC00080934C014F70507050934F0140934E01E0
:101CD0000FC930E0233031050CF400C9273031053D
:101CE0000CF0FCC840915501483009F42DC2463033
:101CF00009F42AC24C3009F0F1C880915601909144
:101D000057018F36910508F4E9C88B38910508F022
:101D1000E5C881E00E94E7039091480110924B01D1
:101D2000692FE3C8682F64506B3008F0C9C0409138
:101D3000560150915701FA013997E530F10530F01D
:101D4000FA017297E930F10508F0BAC050936F01BB
:101D500040936E0181E08093700167E572E04CC9A9
:101D600090934D0180934C0110925C0110925B01A5
:101D70006093460120914E0130914F01309345010F
:101D8000209344019093430180934201E1C88C2F3A
:101D900090E0833091050CF4A4CD8B3091050CF0CC
:101DA000A0CD80915601909157019C012A5030405E
:101DB0002930310538F09C01215030402630310562
:101DC00008F08FCD1092710126CE8C2F90E08930D3
:101DD00091050CF486CD803191050CF082CD809177
:101DE0005601909157019C01255030402431310516
:101DF00008F077CD10927101C0CD4A3008F478C850
:101E0000E1E7F1E080E18093710189E0818791E170
:101E1000928791E09387848780914C0190914D0146
:101E20009C01207033702115310509F461C890932D
:101E30004E0110924F01907090934D0180934C0190
:101E400057C880917001E0CC413108F451C8E1E7F6
:101E5000F1E081E18093710111868BE082878387B5
:101E600086E1848740914C0150914D01CA010024C4
:101E7000880F991F001C880F991F001C892F902D17
:101E800020914E0130914F01220F331F220F331F3B
:101E9000822B932B90934F0180934E014F73507080
:101EA00042955295507F5427407F5427809170016E
:101EB00090E0482B592B50934D0140934C0118C88A
:101EC000982F9752963008F041C04091560150919A
:101ED000570141315105D0F145315105B8F564E163
:101EE00071E08AC88C2F90E0803191050CF4BCC958
:101EF00080917E01843209F44AC180E00E94E703A8
:101F00001092700140915D018091560190915701AE
:101F1000CDC9D0E0C031D1050CF4B4C981E00E9434
:101F2000E70320917501809156019091570130E0AF
:101F3000220F331F2817390708F023C110927001B0
:101F400040915D01B3C9109247017ACB982F93520B
:101F50009B3068F44091560150915701433251052E
:101F600030F04E32510518F465E271E045C8982F03
:101F70009350943018F540915601509157014F36C7
:101F80005105E0F04B385105C8F468E672E034C8FA
:101F90008DE591E064E171E041E150E00E94D421DF
:101FA000409156015091570180914901909148010B
:101FB0001FCB8DE591E065E271E0EECF2D3068F446
:101FC00020915601309157012D30310530F02431E8
:101FD000310518F469E772E00FC881508530C0F40C
:101FE00080915601909157018B30910588F08F3187
:101FF000910570F46AE872E00C94FC07A1E7B1E087
:10200000EDE5F1E081E101900D928150E1F7D9CC4D
:10201000653008F062C0809156019091570185307B
:10202000910508F45AC08930910508F056C0109205
:102030006F0110926E0181E0809370016BE972E094
:102040000C94FC0790915501913009F0E2CB81305E
:1020500009F0DFCB94E290937E0125E020937A0192
:1020600024E120937B0125E120937C0190937D0165
:1020700010924F0110924E01CCCB81E080937F01F2
:1020800082E08093710140937E0140915301509111
:1020900054019A01322F22273295330F307E8091DE
:1020A0004E0190914F01822B932B90934F0180937F
:1020B0004E0120914C01922F990F990F80E0569577
:1020C00047955695479556954795482B592B5093CC
:1020D0004D0140934C010C947807109248010C94E8
:1020E000020881E080937F01E1E7F1E088E18093DD
:1020F000710187E085871186128613868487209177
:10210000820130E040914C0150914D01440F551F28
:10211000242B352B30934D0120934C019D012170D0
:1021200030700C94280780E00E94E70310924B0166
:10213000609148010C94750781E00E946E2134CCB7
:1021400081E00E946E217ECC209156013091570192
:102150002235310508F4CECD2736310508F0CACD39
:10216000483009F0D6CD89E08093550120914C018B
:1021700030914D01220F331F30934D0120934C01BC
:10218000CDCD21E02093700140915D018FC881E0A9
:102190000E94E70381E08093700140915D0180918E
:1021A00056019091570182C880918C01882331F4A7
:1021B00085B5886185BD81E080938C01089580910B
:1021C0008C01882331F085B58F7E85BD979810925C
:1021D0008C01089597988F9A88E085BD85B58160B8
:1021E00085BD85EA83BD0895809195010895DC0140
:1021F0006623C9F480919501882339F58C918093E9
:10220000940115962C911597822F8F7080938D01D4
:102210004091940150E0415050404032510560F0EF
:1022200080919501089580919501882339F38091DB
:1022300095018823C1F7E2CF465D5F4FFA01EE0FAB
:10224000FF1F0590F491E02D099480E00895119608
:102250008D919C9112979C013695279536952795DF
:10226000206820938E0113962D913C911497A9011B
:1022700056954795569547958295880F880F807C8F
:10228000842B80938F012295220F220F207C209394
:10229000900181E080939501C3CF12968C911297A3
:1022A00080939601843008F461C5582F53501396DB
:1022B0002D913C9114974FE080E090E0880F991F9A
:1022C00020FD8160369527954150C1F79C0120780B
:1022D0003F77220F232F221F330B319520938E013E
:1022E000880F80938F015523A1F211962D913C9177
:1022F000129745E080E090E0880F991F20FD8160F3
:10230000369527954150C1F740918F019C0120716E
:102310003070329522952F7023273F702327422B50
:1023200040938F018295807F80939001B2CF119668
:102330002D913C91129740E180E090E0880F991F29
:1023400020FD8160369527954150C1F713964D9138
:102350005C91149760E120E030E0220F331F40FDD4
:102360002160569547956150C1F790938E018093F7
:102370008F0130939001832F80958093910181E0AC
:10238000809395014DCF11962D913C91129740E18C
:1023900080E090E0880F991F20FD81603695279599
:1023A0004150C1F713964D915C91149760E120E084
:1023B00030E0220F331F40FD216056954795615054
:1023C000C1F790938E0180938F01932F92959F7008
:1023D000822F807F892B80939001C90180709F702C
:1023E0002070307F20953095432F42954F709C018F
:1023F000329522952F7023273F702327422B40933D
:10240000910180959095929582958F7089279F7004
:102410008927807F8093920181E08093950100CF8E
:1024200011962D913C9112974CE080E090E0880F3E
:10243000991F20FD8160369527954150C1F713966D
:102440004D915C9114976CE020E030E0220F331F37
:1024500040FD2160569547956150C1F7A901407F25
:102460005F70529542954F7045275F7045274093A6
:102470008E012295207FAC0140705F70252B209348
:102480008F018093900181E080939501C9CE1196D0
:102490008D919C91129730E140E050E0440F551F20
:1024A00080FD4160969587953150C1F713966D91E7
:1024B0007C91149730E180E090E0880F991F60FDD7
:1024C0008160769567953150C1F730E03595279555
:1024D000359527953595279535952795E4E060E066
:1024E00070E0660F771F20FD616036952795E150FB
:1024F000C1F750938E0140938F01E82FEF70252F85
:1025000022952F70742F7F7072279A01207F307070
:10251000329522952F7023273F7023277227407012
:102520005F7075277295707FE72BE093900162953D
:10253000607F292F22952F70622B60939101807FFD
:102540009F70929582958F7089279F7089278093BD
:1025500092012091900180919101909192018227A6
:1025600089278093930181E08093950159CE8091D2
:102570009701882309F4EFC350E050939701139615
:102580002D913C91149711964C9111974770440FDF
:10259000440F440FC901887390709695879596955E
:1025A000879596958795482B4068452B40938E01DB
:1025B0002295220F207E20938F0181E08093950148
:1025C0002FCE80919901882309F4C9C340E080E0AF
:1025D0008093990113968D919C91149786FFBDC3AA
:1025E00050E09C01207230703695279532952295E7
:1025F0002F7023273F70232711969C9111979F716D
:10260000990F922B252F242B922B90938E01880FBC
:10261000880F880F80938F0181E08093950100CE11
:1026200080919A01882309F494C340E040939A0171
:1026300011968D919C9112979C01207E3070369559
:102640002795329522952F7023273F7023272068E6
:10265000242B20938E0113964D915C9114979A012F
:10266000207E307036952795329522952F7023273E
:102670003F702327880F880F880F822B80938F014C
:10268000440F440F440F4093900181E080939501E3
:10269000C7CD11962D913C91129740E180E090E0DA
:1026A000880F991F20FD8160369527954150C1F70D
:1026B00013964D915C91149760E120E030E0220F79
:1026C000331F40FD2160569547956150C1F79093A7
:1026D0008E0180938F01309390012093910181E0CE
:1026E000809395019DCD13968D919C9114979C019B
:1026F00020783370220F232F221F330B3195119630
:102700003C911197330F330F330F322B30938E01DF
:10271000282F382F330F30938F0180959095807834
:102720009370880F892F881F990B919511969C9112
:102730001197990F990F990F982B90939001822FD1
:102740008095880F8093910181E08093950168CDF9
:1027500011963C91119720E013968D919C911497BE
:10276000822B932B60E14EEE57E820E030E0615081
:1027700049F056954795220F331F40FFF8CF21604F
:102780006150B9F760E140E050E0440F551F80FD13
:102790004160969587956150C1F782E080939401DE
:1027A00030938E0120938F01509390018BE880939A
:1027B000910181E08093950133CD80919801882328
:1027C00009F4D2C250E05093980113962D913C9198
:1027D000149711964C9111974F70440F440FC901F3
:1027E00080739070929582958F7089279F7089274A
:1027F000482B4068452B40938E012295207F2093E3
:102800008F0181E0809395010BCD13968D919C9162
:1028100014979C01369527953695279520938E0120
:102820008295880F880F807C80938F0181E0809350
:102830009501F6CC11962D913C91129744E080E0E1
:1028400090E0880F991F20FD8160369527954150B3
:10285000C1F713964D915C9114976CE020E030E045
:10286000220F331F40FD2160569547956150C1F7F7
:10287000A90140705F708295807F852B80938E01C7
:1028800020938F0181E080939501CACC80919A01B9
:10289000882309F467C240E040939A0111968D9114
:1028A0009C9112979C0120703073232F22952F70DA
:1028B000206E20938E019F70929582958F7089274C
:1028C0009F70892780938F0113968D919C91149707
:1028D000392F32953F7011962C9111972295207FB8
:1028E000232B242B20939001807F9F7092958295BB
:1028F0008F7089279F7089278093910113968C91FF
:1029000013978295807F8093920181E08093950157
:1029100087CC13968C9113978295880F880F807CB3
:1029200080938E0181E0809395017ACC47E02DE77A
:1029300030E080E090E0880F991F20FD816036959F
:1029400027954150C1F79695982F88279795879599
:1029500013964D915C91149767E020E030E0220FD0
:10296000331F40FD2160569547956150C1F7822B7A
:10297000932B282F220F216020938E010024880F93
:10298000991F001C880F991F001C892F902D809380
:102990008F0181E08093950143CC11962D913C915C
:1029A000129748E080E090E0880F991F20FD816039
:1029B000369527954150C1F713964D915C91149728
:1029C00068E020E030E0220F331F40FD2160569583
:1029D00047956150C1F752CF11962D913C911297B6
:1029E0004DE080E090E0880F991F20FD81603695D2
:1029F00027954150C1F713964D915C91149768E06B
:102A000020E030E0220F331F40FD216056954795AE
:102A10006150C1F7AC01407E5F7156954795529564
:102A200042954F7045275F70452740938E01682F70
:102A300080959095AC0140705C7156955695462FE7
:102A4000440F440F440F452B40938F018C7F9370AC
:102A5000969587959695879580939001C9018C7F6F
:102A600090709695879596958795962F90959295C7
:102A7000990F990F907C982B90939101822F20951C
:102A800030952C7F30703695279536952795982F61
:102A90009295990F990F907C922B9093920180952B
:102AA0008295880F880F807C8093930181E08093CA
:102AB0009501B6CB13968D919C911497582F9C013C
:102AC000207F3F70329522952F7023273F70232758
:102AD00020938E01482F40954F709C0120703F70CD
:102AE0004327807F9070929582958F7089279F7081
:102AF000892748275295507F452B40938F0181E0CD
:102B0000809395018DCB80919B01882309F41FC18F
:102B100040E040939B0113962D913C911497C9017D
:102B200080779070929582958F7089279F70892702
:102B300011969C9111979295907F982B942B90933E
:102B40008E015BCE11962D913C91129748E080E06A
:102B500090E0880F991F20FD8160369527954150A0
:102B6000C1F713964D915C91149768E020E030E036
:102B7000220F331F40FD2160569547956150C1F7E4
:102B80004FEB40938E014FEF40938F0140E840930D
:102B90009001A9015695479540684093910127956A
:102BA00022272795AC0156954795242B2093920117
:102BB0008795882787958093930181E0809395017D
:102BC0002FCB13962D913C91149749E080E090E033
:102BD000880F991F20FD8160369527954150C1F7D8
:102BE0002FEF20938E0120EC20938F019C013695CE
:102BF0002795369527952068209390018295880F18
:102C0000880F807C8093910181E08093950108CBAF
:102C100011962D913C9112974EE080E090E0880F44
:102C2000991F20FD8160369527954150C1F7139675
:102C30004D915C9114976CE020E030E0220F331F3F
:102C400040FD2160569547956150C1F780938E01F4
:102C500010928F0110929001209391012095209362
:102C6000920181E080939501DBCA11962D913C91F0
:102C70001297C90181709070880F991F369527951A
:102C800020FD816013964D915C9114976BE020E0DC
:102C900030E0220F331F40FD21605695479561506B
:102CA000C1F7422F922F96709295990F907E2078BF
:102CB0003770220F232F221F330B3195922B8370F5
:102CC0008295807F982B90938E01842F8170880F3E
:102CD000880F880F942F9877990F892B80938F01F5
:102CE00081E0809395019CCA11968D919C911297D9
:102CF0009C013F7036952795329522952F7023279A
:102D00003F70232720938E0113962D913C911497A9
:102D1000A9014F77507056954795529542954F703F
:102D200045275F704527880F880F880F842B809375
:102D30008F01822F880F880F880F20FF19C090E025
:102D4000892B8093900181E08093950169CA48E0C6
:102D5000E0CE48E06BCC50E410CC50E842CC40E4EC
:102D600080E436CC48E098CD50E42DCD50E09FCAA9
:102D700094E0E6CF10928D010895CF93DF93809178
:102D80009501882351F1409139014F3F59F18091CC
:102D90009501882361F010923A018091940190E0AE
:102DA00001978032910508F46CC0109295018091D2
:102DB0009501882391F48091B4019091A80189171D
:102DC00008F068C090919401923109F494C18F5F2A
:102DD0008093B40181E08093950180919501DF910A
:102DE000CF91089580913A01882389F250919C01F6
:102DF000552309F423C180919D0190919E01019674
:102E000090939E0180939D0120919F013091A0019C
:102E10002115310531F0215030403093A00120932D
:102E20009F012091A1013091A20182179307A8F27E
:102E300010929E0110929D0180919401883009F4B6
:102E4000C2C5809194018F3009F4E7C58091940147
:102E5000883109F418C680919401803109F097CF28
:102E6000852F90E001962091A40130E0821793070E
:102E70000CF074C687E18093390189E28093A30145
:102E800086CF865B9F4FFC01EE0FFF1F0590F491EC
:102E9000E02D099481E0809395018093A701109221
:102EA000A8011092B40199CF9091A90180913B01A2
:102EB000981709F447C180913901909194019F308E
:102EC00009F4E9C090919401983109F4E4C090911B
:102ED0009401903109F4DFC08F3F09F4A4C59091AB
:102EE0009401993009F476C590919401953109F4D3
:102EF00071C5E82FE695E695E695F0E0E257FE4FBE
:102F0000208130E090E0809590958770907002C0AD
:102F1000359527958A95E2F7217080919401873045
:102F200009F492C5222309F0BAC1C091AA01D09137
:102F3000AB0180913C0190913D01C817D90708F47D
:102F4000E0C0C091A901CC2309F453C1CF5FC09365
:102F5000A9012DCF80919401883009F4DBC0C09184
:102F6000A901CC23B9F120913B01C21760F3C091B4
:102F7000AA01D091AB0180913C0190913D01C8170D
:102F8000D90708F4BEC0209139012F5F2093390181
:102F900030E04091A3018091B30190E0840F911D36
:102FA0002817390784F08FEF8093390180919C01B5
:102FB0008F5F80939C019091A401891709F482C5C9
:102FC00081E080933A011092A9011092AB01109216
:102FD000AA01EDCE809139018F3F09F44CC1909147
:102FE000A301891708F008C190919401933009F466
:102FF000D9C0909194019B3109F44CC5E82FE69516
:10300000E695E695F0E0E257FE4F208130E090E053
:10301000809590958770907002C0359527958A9518
:10302000E2F720FF17C52091AF0120933B0180916B
:10303000B00180933C0110923D0197CF8091A50192
:103040009091A60120919F013091A00182179307D2
:1030500008F4E9C08091A701882309F019C1809183
:103060008D018093A8018F3009F4F1C41092A6015C
:103070001092A5011092A9011092AB011092AA0121
:103080008091940190E001978032910508F40AC183
:10309000109295017CCE8F3F09F4D2C0909194019B
:1030A0009F3009F4B2C490919401983109F4B1C4ED
:1030B00090919401903109F4BEC09BE090933B0144
:1030C0002BE030E030933D0120933C01E82FE69562
:1030D000E695E695F0E0E257FE4F208130E090E083
:1030E000809590958770907002C0359527958A9548
:1030F000E2F7217017CF909190019F60909390011B
:1031000066CE209709F4B4C02196D093AB01C0934A
:10311000AA014DCE8091A1019091A201009729F0C2
:1031200001979093A2018093A10180919F019091BA
:10313000A001009709F413CF01979093A001809309
:103140009F010DCF2091AA013091AB0180913C01EC
:1031500090913D012817390709F0ADCE80913901D2
:103160008F5F809339019091A301891708F484C47B
:103170008FEF80933901809194018F3009F4B8C4A6
:1031800080919401883109F4B3C480919401803115
:1031900009F4AEC41092950181E080933A010E9437
:1031A000DF1011CF803138F0803109F4F6C4853258
:1031B00008F0D9CE81509BE090933B01E82FE69533
:1031C000E695E695F0E0E257FE4F208130E090E092
:1031D000809590958770907002C0359527958A9557
:1031E000E2F720FF74C480E290E090933D01809369
:1031F0003C010E94D410AACE8091B301882309F427
:10320000B2CE2091B10120933B0190919C0180911D
:10321000A401981708F029C48091B20180933C0161
:1032200010923D01A2CE01969093A6018093A50134
:1032300080919501D4CD873119F08F3209F03DCFBF
:103240002091AC0120933B018091AD019091AE01A2
:1032500090933D0180933C01C091A901C21708F4ED
:1032600072CEC091AA01D091AB01209709F04CCF4A
:103270000E94DF1049CF2091AC0120933B01809147
:10328000AD019091AE0190933D0180933C016DCED4
:10329000109295011092A70180919501A0CD2091E7
:1032A0003B01DACF86599F4FFC01EE0FFF1F0590BF
:1032B000F491E02D099425E02093AC0183E090E0A7
:1032C0009093AE018093AD0120933B0190933D011B
:1032D00080933C011092B30182E18093A30181E0CD
:1032E0008093A4011092A2011092A10188EE93E0B4
:1032F0009093A00180939F018CE983BD48CD1092EB
:10330000AC011092AE011092AD018BE08093AF0141
:1033100099E59093B0018093B10187E28093B20167
:1033200081E08093B3019CE09093A3018093A4017A
:103330008CEB92E09093A2018093A10188E29AE045
:103340009093A00180939F018CE983BD20CD23E061
:103350002093AC0184E190E09093AE018093AD01A5
:1033600080E18093A3012093AF018AE08093B001B4
:103370002093B10184E08093B20181E08093B30196
:103380008093A4011092A2011092A10180E293E027
:103390009093A00180939F018CE983BDF8CC84EBCE
:1033A0008093AC0189E590E09093AE018093AD01EC
:1033B0008BE08093AF0191E29093B0018093B101D3
:1033C0008AE08093B20181E08093B3019AE2909306
:1033D000A301D6CF84EB8093AC0189E590E0909374
:1033E000AE018093AD018BE08093AF0191E29093A9
:1033F000B0018093B1018AE08093B20181E08093B3
:10340000B30191E19093A301BBCF2BE02093AC01DA
:1034100084E390E09093AE018093AD0120933B0153
:103420008BE090E090933D0180933C011092B301BA
:1034300087E08093A30182E08093A4018CEB91E06C
:103440009093A2018093A10183E399E09093A0015E
:1034500080939F0187EC83BD9ACC8CE28093AC0172
:103460008EE192E09093AE018093AD0182E0809373
:10347000A3018AE08093AF0195E49093B00180931B
:10348000B1018DE18093B20181E08093B30180931B
:10349000A4011092A2011092A10180EB94E09093FC
:1034A000A00180939F018CE983BD71CC85E380935B
:1034B000AC0181E190E09093AE018093AD0189E091
:1034C00080933B0189E090E090933D0180933C0123
:1034D0001092B30184E28093A30181E08093A40160
:1034E0001092A2011092A10184E893E09093A001B0
:1034F00080939F0185EA83BD4ACC8091B4018823E3
:1035000011F01092390184EB8093AC0189E590E0D1
:103510009093AE018093AD0180E18093A3018BE095
:103520008093AF0191E29093B0018093B1018AE062
:103530008093B20181E08093B3018093A401109243
:10354000A2011092A10188EB91E09093A0018093D9
:103550009F018CE983BD1BCC88E28093AC0187E29C
:1035600090E09093AE018093AD018DE08093A30134
:103570008CE08093AF0198E09093B0018093B1010B
:1035800081E18093B20181E08093B301F9CE8AE2B8
:103590008093AC0182E190E09093AE018093AD0105
:1035A00088E28093A30186E08093AF019DE0909331
:1035B000B0018093B10183E065CF26E02093AC0198
:1035C00086E090E09093AE018093AD0120933B01A3
:1035D00090933D0180933C011092B30185E17BCF34
:1035E0002BE02093AC0184E390E09093AE018093B4
:1035F000AD0120933B018BE090E090933D018093DF
:103600003C011092B30181E18093A30183E0809398
:10361000A40180E991E09093A2018093A10183E34A
:1036200099E09093A00180939F018CE983BDAFCB7B
:103630002BE02093AC0184E390E09093AE01809363
:10364000AD0120933B018BE090E090933D0180938E
:103650003C011092B3018AE08093A30182E0D7CFAE
:103660002BE12093AC0186E090E09093AE01809333
:10367000AD012093AF0186E08093B0018AE0809392
:10368000B10199E19093B20191E09093B3018093DD
:10369000A30182E08093A4018CEB92E09093A201BD
:1036A0008093A1019093A00180939F0185EA83BD3F
:1036B0006ECB23E02093AC0188E490E09093AE01C0
:1036C0008093AD012093AF0184E98093B0012093F2
:1036D000B10181E68093B20181E08093B3019CE067
:1036E0009093A3018093A4011092A2011092A101D2
:1036F00084E893E09093A00180939F018CE983BDBF
:1037000046CB8AE58093AC0189E590E09093AE01C9
:103710008093AD018BE08093AF0190E29093B00174
:103720008093B1018AE08093B20181E08093B3017C
:103730009093A3018093A4018CEA93E09093A2015B
:103740008093A1019093A00180939F018CE983BD98
:103750001ECB85E38093AC0181E190E09093AE01B4
:103760008093AD0189E080933B0189E090E09093E4
:103770003D0180933C011092B30185E1ACCE1092E3
:10378000AC011092AE011092AD0186E08093AF01C2
:1037900093E29093B0018093B1018EE08093B201E7
:1037A00081E08093B3018FE08093A30182E0809356
:1037B000A40184E195E09093A2018093A10188E2A5
:1037C0009AE09093A00180939F0185EA83BDDFCAB0
:1037D00022E12093AC0182E190E09093AE018093CE
:1037E000AD0120933B0190933D0180933C011092E9
:1037F000B3018DE070CE23E02093AC0184E990E02A
:103800009093AE018093AD012093AF0184E9809342
:10381000B0012093B10181E68093B20181E08093F1
:10382000B3019AE05DCF84E48093AC0181E290E043
:103830009093AE018093AD0188E08093AF0198E151
:103840009093B0018093B10187E08093B20181E051
:103850008093B30180E38093A3018091B401882316
:1038600009F0ADC182E08093A40188EC95E09093CB
:10387000A2018093A1019093A00180939F018CE904
:1038800083BD85CA86E48093AC0185E490E0909383
:10389000AE018093AD0181E18093AF0193E39093FA
:1038A000B0018093B10180E18093B20181E0809307
:1038B000B30198E19093A3018093A4011092A20117
:1038C0001092A10180E293E09093A00180939F0168
:1038D00085EA83BD5CCA8AE58093AC0189E590E006
:1038E0009093AE018093AD018BE08093AF0190E2A5
:1038F0009093B0018093B1018AE08093B20181E09E
:103900008093B30195E29093A3018093A401109258
:10391000A2011092A10184EF91E09093A001809305
:103920009F018CE983BD33CA84EB8093AC01809105
:10393000B401882309F445C18CE290E09093AE0174
:103940008093AD011092A3018BE08093AF0191E2CF
:103950009093B0018093B1018AE08093B20181E03D
:103960008093B3010DCD80E38093AC018BE090E0B8
:103970009093AE018093AD0188E18093AF018BE01D
:103980008093B0019CE09093B1018093B2011092BA
:10399000B30180919601845F8093A3018091B4016B
:1039A000882309F00AC183E08093A40184EF91E0A9
:1039B0009093A2018093A1019093A00180939F0115
:1039C00085E983BDE4C980E1809339018FE180936B
:1039D000A301DDC999E090933B0129E030E03093E9
:1039E0003D0120933C0190919401993009F49CC0D1
:1039F000843009F4BAC0853009F07BCA22E130E096
:103A000030933D0120933C0174CA8F3009F04BCBB9
:103A100017CC873009F04CCB13CC809339018AE165
:103A20008093A301B4C980919401893009F452C0F4
:103A300080919401853109F44DC0809194018032C8
:103A400009F4A7C021E069CA81E028276BCA409326
:103A5000A8010CCB2091B10120933B018091B201D0
:103A600080933C0110923D0180CA8FEF90E09093CB
:103A70003D0180933C0179CA1092A9011092AB01DB
:103A80001092AA011ACA87E0809339018FE08093CF
:103A9000A3017DC9883008F054C09BE090933B019E
:103AA00020918E0130E090E0809590958770907025
:103AB00002C0359527958A95E2F720FF08C081E27C
:103AC00090E093CB1092950110929C0179CA8AE004
:103AD00090E08BCB8091AC0180933B018091AD0154
:103AE0009091AE0190933D0180933C0121E015CA75
:103AF00020919C012F5F20939C013091B4013323CE
:103B000031F083E399E09093A2018093A101809129
:103B1000A8013817A0F58091A4018F5F8093A401BC
:103B20003F5F3093B40138CB843009F0E2C992E1B1
:103B300090933B0122E130E030933D0120933C0122
:103B4000D8C98830A1F1813108F00DCA9BE090936B
:103B50003B0120918F0130E08150A5CF8FEF809302
:103B6000390181E18093A30112C99BE190933B014C
:103B700022E130E030933D0120933C01BAC98091AD
:103B8000A401281709F008CB1092950110929C010E
:103B900003CB1092390121E0C0C98BE080933B0137
:103BA00089E590E090933D0180933C0122CB8BE02E
:103BB00080933B0189E590E018CB81E0F5CE81E070
:103BC00052CE89E590E09093AE018093AD0180E202
:103BD0008093A301B9CE87E592E09BBD8ABD89E0C1
:103BE0008EBD80E189BF0895982F9150923010F0DA
:103BF00080E008951AB8813071F08CE089B910BC6A
:103C0000599A88E98AB986E880BD81E061E00E941E
:103C1000AA2081E008958BE989B9F1CF1092B5010E
:103C20001092B6011092B7011092B8011092B9012A
:103C30001092BA011092BB011092BC0108951F921C
:103C40000F920FB60F9211242F933F934F935F93D0
:103C50006F937F938F939F93AF93BF93EF93FF9354
:103C60000E94BD16882309F440C08091B501982FA9
:103C70009F5F9093B501883C38F19FB7F89480918D
:103C8000BB0181608093BB019FBF1092B501809101
:103C9000B601982F9F5F9093B6018436A8F01092DA
:103CA000B6018091B7019091B801A091B901B0918E
:103CB000BA010196A11DB11D8093B7019093B8017F
:103CC000A093B901B093BA01FF91EF91BF91AF9169
:103CD0009F918F917F916F915F914F913F912F9124
:103CE0000F900FBE0F901F9018950E94AB06BDCF8E
:103CF000282F216061157105A1F03FB7F8949091CC
:103D0000BB019E7F9093BB013FBF9091BB0192236B
:103D1000E1F39091BB0161507040982359F384E026
:103D2000089581E008953FB7F8942091BB012E7F5C
:103D30002093BB013FBF009771F02091BB0120FF92
:103D4000FCCF3FB7F8942091BB012E7F2093BB019D
:103D50003FBF019791F7089580538A3020F0815139
:103D6000863010F08FEF0895865F08958F708A3047
:103D700010F0895C0895805D0895BF92CF92DF9224
:103D8000EF92FF920F931F93CF93DF937C018B01F0
:103D9000442309F14150EC012296C42EDD24CC0CC1
:103DA000DD1CCC0EDD1E01C02296F70180810E9431
:103DB000AC1EB82EB29480EFB822F801B082F701A1
:103DC00081817E010E94AC1E8B29F80181938F01B5
:103DD000CC16DD0649F7DF91CF911F910F91FF902F
:103DE000EF90DF90CF90BF900895FB01292F22958F
:103DF0002F702A30E0F4205D2083292F2F702A3085
:103E0000E0F4205D21839C01329522952F702327B9
:103E10003F7023272F702A3090F4205D22838F700B
:103E20008A3090F0895C83831482CF010895295CE5
:103E30002083292F2F702A3020F3295CE3CF295CBF
:103E400022838F708A3070F7805D83831482CF0164
:103E50000895FB01982F92959F709A3050F4905DD1
:103E600090838F708A3050F0895C81831282CF01F9
:103E70000895995C90838F708A30B0F7805D81835C
:103E80001282CF010895E2EDF1E020E080818823E5
:103E900059F02F5F78962430C9F710921E021092C5
:103EA0001D0280E090E0089530E0C901880F991F5D
:103EB000820F931F880F991F880F991F880F991FD2
:103EC00083549E4F90931E0280931D0221E0FC01BB
:103ED000258B20912002278B2F5F209320020895AD
:103EE0001F920F920FB60F9211242F933F934F936F
:103EF0005F936F937F938F939F93AF93BF93EF9352
:103F0000FF938BB19CB18BB18871B1F05F9B03C003
:103F10008CB15F99FDCFFF91EF91BF91AF919F91D0
:103F20008F917F916F915F914F913F912F910F9062
:103F30000FBE0F901F9018959230A9F09330F9F0B2
:103F4000E0911D02F0911E028589813021F786895A
:103F5000853108F73097F9F2DF01A80FB11D9C9366
:103F60008F5F868BD8CFE0911D02F0911E023097B3
:103F700019F085898130C1F00E94431FCCCFE091B8
:103F80001D02F0911E028589813029F686898823D9
:103F900059F082E0858B9FB7F8948091BB018260D5
:103FA0008093BB019FBFB7CF168AB5CF90911F02F8
:103FB000E4EDF1E020E08081981739F02F5F7896EA
:103FC0002430C9F780E090E00895DF0112978C91CA
:103FD0008230A1F79F5F90931F0230E0C901880FE4
:103FE000991F820F931F880F991F880F991F880FA1
:103FF000991F83549E4F0895FC01178A168A158ACB
:1040000085E111928A95E9F70895E6E3F2E080E010
:1040100090E0482F3081332341F001967896843028
:104020009105B9F780E090E008959C01220F331FBD
:10403000280F391F220F331F220F331F220F331F68
:1040400023543E4FF901E758FF4F81E08083809170
:104050008102F901E558FF4F80838F5F80938102D1
:10406000242F30E0C901880F991F820F931F880FFA
:10407000991F880F991F880F991F8F5D9D4F089575
:104080000F931F93CF93E82F792FC62FCF5FC9319E
:1040900070F4A6E3B2E020E030E0822F9C919923F7
:1040A00059F02F5F3F4F589624303105B1F780E02B
:1040B000CF911F910F910895A901440F551F420FF1
:1040C000531F440F551F440F551F440F551F435492
:1040D0005E4FDA01A758BF4F91E09C939091810207
:1040E00045585F4FDA019C939F5F9093810290E067
:1040F0008C01000F111F080F191F000F111F000F57
:10410000111F000F111F0F5D1D4F89F2C8016E2F87
:104110004C2F50E00E94DD21F801C68B82E0858B98
:104120009FB7F8948091BB0184608093BB019FBFCF
:1041300081E0CF911F910F9108955D9BFECF8CB9C7
:104140000895FC01178A168A158A85E111928A95CD
:10415000E9F708950F931F93CF93DF93062F1FB7AF
:10416000F894813041F0013039F11FBFDF91CF91D8
:104170001F910F91089510921F02109220028DEB53
:1041800091E090931E0280931D02C0E0D0E0CE012A
:10419000880F991F8C0F9D1F880F991F880F991FDB
:1041A000880F991F83549E4F0E94FC1F2196C43094
:1041B000D10569F70130C9F610928102109282028E
:1041C000C0E0D0E0CE01880F991F8C0F9D1F880F93
:1041D000991F880F991F880F991F8F5D9D4F0E940F
:1041E000A1202196C430D10569F71FBFDF91CF917F
:1041F0001F910F910895CF93DF9390918202809148
:104200008102891781F0D2E0C3E0E8E3F2E080E0C8
:104210002081921759F08F5F78968430C9F780E03B
:1042200061E00E94AA20DF91CF910895DF011297EB
:104230002C91223081F790E0FC01EE0FFF1FE80F78
:10424000F91FEE0FFF1FEE0FFF1FEE0FFF1FEF5DB9
:10425000FD4F29F35D9BFECFDCB98689882361F091
:1042600080E0DF01A80FB11D9C915D9BFECF9CB942
:104270008F5F96898917A8F35D9BFECFCCB9CF01DC
:104280000E94A120909182029F5F90938202809170
:104290008102891709F0B9CFDF91CF9108950F936B
:1042A0001F93CF93DF938C010E94D61FEC010097E0
:1042B00079F04E89C801BE0150E00E94DD21CE0197
:1042C0000E94FC1F81E0DF91CF911F910F91089513
:1042D00080E0DF91CF911F910F910895909171012E
:1042E00020915501992311F0225001C02150409195
:1042F00066012417C0F0909167012917A0F490E09F
:1043000030E0241B310902C0880F991F2A95E2F77B
:104310002091530130915401282B392B30935401B3
:10432000209353010895409168012417B8F09091AB
:104330006901291798F490E030E0241B310902C08C
:10434000880F991F2A95E2F720915101309152016F
:10435000282B392B3093520120935101089510924C
:10436000B5011092B6011092B7011092B8011092E7
:10437000B9011092BA011092BB011092BC010E94C7
:10438000F5040E94EA1087E592E09BBD8ABD89E0B2
:104390008EBD80E189BF82E00E94F41D78940E9466
:1043A0006D0281E090E00895FB01DC0102C0059000
:1043B0000D9241505040D8F70895FB01DC0102C036
:1043C00001900D9241505040D8F70895F894FFCFD6
:1043D00056302E320032322E30312E323031330010
:1043E0002049724D6F64756C652072656164792136
:1043F00000B2000000007B5B5D7D5C0000000000FF
:10440000000000000000000000007E00000000002E
:1044100000000000000000000000007C0000000020
:104420000000B5005E31323334353637383930DF8D
:10443000B400080971776572747A75696F70FC2B26
:1044400000006173646667686A6B6CF6E4230D00B4
:104450003C79786376626E6D2C2E2D000000000092
:1044600020000000B02122A72425262F28293D3F27
:104470006000080951574552545A55494F50DC2A9B
:1044800000004153444647484A4B4CD6C4270D00D0
:104490003E59584356424E4D3B3A5F0000000000E3
:0E44A000200000FFFFFFFFFFFFFF01FFFF00F6
:00000001FF
