:100000000C9456010C9473010C9473010C947301BD
:100010000C9473010C9473010C9473010C943F299C
:100020000C9473010C9473010C9473010C94730180
:100030000C9473010C942A2C0C9473010C9473018E
:100040000C9473010C9473010C9473010C94730160
:100050000C9473012619B2196F1AED1A211BA11BFA
:100060000B1CED1C4C1CC31A7719D71B661D5E1F99
:10007000801DD11D0B1E521E781EB41E941CDC1E4A
:100080005E1FA41D5E1F5E1FE019FE19EB1E341DCE
:100090005E1F2D1F52208720182172219E21D22100
:1000A0002A22A22252224421D624FE21F822D6243A
:1000B00026237A23A423CC23F82324247A2256242B
:1000C000D6245023D624D624C020EC208224CD224E
:1000D000D624AE24FB24FB24FB24FB24FB24FB249A
:1000E000DD26FB24DD26FB248128FB24FB2481283C
:1000F000DD26DD26DD26FB24FB24FB24DD26FB2478
:100100008128DD2681288128FB24FB24FB24FB2475
:100110008128DD2601151B0A0E0A0E0A0E0F140097
:100120000F14000100020710172D07100710001010
:10013000102020010100020710172D0710071000E2
:10014000000000000101001C0710172D0710071008
:10015000000D1A222A01010003070F162C070F07B2
:100160000F00101525250101000409191E4A09195F
:1001700009190C18000C1801010005030E112203C7
:100180000E030E00101C283001010006020485A594
:100190000204576D0104040A0A010000070F150F3D
:1001A00015000000000107070D0D000001080508FB
:1001B0001F2805080C110005050F0F010000090795
:1001C0000F070C00000000050D0D15150000030CB5
:1001D000020485A50204576D0206060C0C010000FE
:1001E0000D14210409070D14200000000A0A010063
:1001F000000F090D090D000000000000010B1100A7
:100200000103170407040700000000000909111684
:1002100000000312030A0A12030A0106000E14204A
:100220002801010013090F050D090F0C180000002B
:100230000D0D01010016070D3755070D172500009C
:1002400000020201000019030635430306182001CD
:1002500005050C0D0100001A100410041004100410
:1002600000030310100001041D0105061001050222
:100270000800000010100100001E090D5064090D57
:10028000232D0004050C0C0100001F070F13260787
:100290000F050C00000010100101002003080105EB
:1002A00000000000010909111100000311241FBE04
:1002B000CFE5D8E0DEBFCDBF11E0A0E6B0E0E4E1DD
:1002C000FFE502C005900D92AC30B107D9F712E0FE
:1002D000ACE0B1E001C01D92A138B107E1F70E9486
:1002E0004D2A0C94882F0C940000CF93DF93CDB748
:1002F000DEB7F89481E0DF91CF910895CF93DF933B
:1003000000D0CDB7DEB79A8389838FE590E029814D
:100310003A81F9012081FC0120830F900F90DF9139
:10032000CF910895CF93DF93CDB7DEB728970FB65F
:10033000F894DEBF0FBECDBF80E690E06FE00E9474
:10034000312E01C0000080918901882F90E08778CC
:1003500090700097C1F380918901882F90E081709F
:1003600090708823B1F08FE590E0FC0180818D834F
:100370000E947501898306C0809189018E7F8093D8
:100380008901198289818823B9F7CE0105960E94D7
:100390007E0180918901882F90E082709070009793
:1003A000C1F08FE590E0FC0180818E830E94750191
:1003B0008A8306C0809189018D7F809389011A828A
:1003C0008A818823B9F7CE0106960E947E010E9499
:1003D000A70280918901882F90E084709070009727
:1003E000C1F08FE590E0FC0180818F830E94750150
:1003F0008B8306C0809189018B7F809389011B824A
:100400008B818823B9F7CE0107960E947E010E9456
:100410009F2E8091890188230CF094CF8FE590E086
:10042000FC01808188870E9475018C8306C08091C1
:1004300089018F77809389011C828C818823B9F789
:10044000CE0108960E947E010E9427027BCFCF93A7
:10045000DF9300D000D000D0CDB7DEB7CE0101963B
:100460000E947E05CE0101960E94590226960FB683
:10047000F894DEBF0FBECDBFDF91CF910895CF932B
:10048000DF930F92CDB7DEB789838981803218F070
:1004900089818F3718F08981803A20F089810E9404
:1004A000852E03C089810E94852E0F90DF91CF9108
:1004B0000895CF93DF93CDB7DEB767970FB6F89463
:1004C000DEBF0FBECDBF9F8B8E8B82E7898380E717
:1004D0008A838E899F89FC0180819E012D5F3F4F19
:1004E000B9010E946A2B81E68D838E899F89FC0168
:1004F000818192819E012A5F3F4FB9010E94092BA1
:1005000083E68A878E899F89FC01838194819E017D
:10051000255F3F4FB9010E94092B86E68F878E89A0
:100520009F89FC0185819E01205F3F4FB9010E9498
:100530006A2BCE01019660E10E94312E67960FB6BC
:10054000F894DEBF0FBECDBFDF91CF910895CF935A
:10055000DF93CDB7DEB76D970FB6F894DEBF0FBE51
:10056000CDBF56C08F81882F90E08337910549F029
:100570008637910509F448C08236910509F441C0D7
:1005800046C0CE01079602969E01245E3F4FB901F8
:1005900041E00E94B92A8C8D8983CE010796059689
:1005A0009E01245E3F4FB90142E00E94B92A8C8D22
:1005B0009D8D9827892798279B838A83CE0107964C
:1005C0000A969E01245E3F4FB90142E00E94B92A7B
:1005D0008C8D9D8D9827892798279D838C83CE01AC
:1005E00007960F969E01245E3F4FB90141E00E949D
:1005F000B92A8C8D8E83CE01019661E00E94E018AD
:1006000007C00E94642A04C00E94180301C00000B1
:10061000CE0107960E944A2F882309F0A3CF6D963A
:100620000FB6F894DEBF0FBECDBFDF91CF91089516
:10063000CF93DF93CDB7DEB766970FB6F894DEBFE2
:100640000FBECDBF198286E78A83CE01029601963E
:1006500021E730E045E0F90100802F5F3F4FFC01CA
:100660000082019641504423B1F789818B5F8983D1
:100670008981882F90E001979E012D5F3F4F820F67
:10068000931F2DE2FC01208389818F5F89838981FB
:10069000882F90E001979E012E5F3F4F2F5F3F4FC5
:1006A000820F931F26E730E04BE0F90100802F5FB7
:1006B0003F4FFC010082019641504423B1F78981EC
:1006C000855F8983CE01029669810E94312E6696EC
:1006D0000FB6F894DEBF0FBECDBFDF91CF91089566
:1006E000CF93DF93CDB7DEB728970FB6F894DEBF70
:1006F0000FBECDBF49835A836B837C838D839E83DA
:1007000038872F838981823189F48C819D810E9471
:10071000A003282F8F819885FC0120838F819885E5
:10072000FC018081882311F081E001C080E02896DF
:100730000FB6F894DEBF0FBECDBFDF91CF91089505
:10074000CF93DF9300D000D00F92CDB7DEB79D835B
:100750008C8319828C819D818435910509F4C5C0F3
:1007600085359105C8F58B34910509F4ACC08C34FE
:100770009105C8F48A33910509F47EC08B33910545
:1007800048F48C32910509F45FC08933910509F46E
:1007900067C0BDC08C33910509F47AC08E339105D2
:1007A00009F482C0B4C08035910509F495C0813543
:1007B000910548F48C34910509F488C08F34910573
:1007C00009F487C0A4C08135910509F488C0833538
:1007D000910509F487C09BC0893B910509F446C087
:1007E0008A3B9105C0F48935910509F487C08A35A3
:1007F000910548F48535910509F47AC0863591054F
:1008000009F479C084C08E36910509F459C08C3A38
:10081000910501F17CC08E3B910509F44BC08F3BE3
:10082000910538F48A3B910569F18C3B9105B1F152
:100830006EC024E08030920709F463C0E8E08030A5
:100840009E0709F461C063C080910C0181608093B0
:100850000C0115C180910C018E7F80930C010FC19A
:1008600080910C01826080930C0109C180910C0180
:100870008D7F80930C0103C180910C018460809373
:100880000C01FDC080910C018B7F80930C01F7C09F
:1008900080910C01886080930C01F1C080910C0163
:1008A000877F80930C01EBC080910C018061809365
:1008B0000C01E5C080910C018F7E80930C01DFC09C
:1008C0008BE18983DCC080E98983D9C081E9898390
:1008D000D6C082E98983D3C083E98983D0C084E903
:1008E0008983CDC085E98983CAC086E98983C7C069
:1008F00087E98983C4C088E98983C1C089E989837C
:10090000BEC08EE98983BBC08FE98983B8C08C8162
:100910009D8180789070009709F0B0C08C819D8196
:100920008037910548F08C819D818038910520F4B5
:100930008C81805F8983A2C08C819D8180349105E8
:1009400008F04FC080910C01882F90E08871907062
:10095000009709F492C08C819D818B30910589F1BB
:100960008C30910588F48830910511F1893091051A
:1009700020F483309105C9F033C089309105D9F056
:100980008A309105D9F02CC08C31910501F18D315F
:10099000910520F48C309105B9F022C08D3291057B
:1009A000C9F084339105C9F01BC082EB898318C05C
:1009B0008BE7898315C08BE5898312C08DE5898318
:1009C0000FC08DE789830CC08CE5898309C08EE751
:1009D000898306C08CE7898303C085EB89834DC07A
:1009E0004DC080910C01882F90E08470907000972A
:1009F00009F18C819D818F579F4FFC018081813649
:100A000088F08C819D818F579F4FFC0180818B37AF
:100A100048F48C819D818F579F4FFC0180818056C7
:100A200089832CC08C819D818F579F4FFC018081D1
:100A3000898324C080910C01882F90E0837090708E
:100A4000009719F080E490E002C080E090E02C81F3
:100A50003D81820F931F9B838A838A819B818F575D
:100A60009F4FFC018081882349F08A819B818F57A9
:100A70009F4FFC018081898301C0000000008981B3
:100A80000F900F900F900F900F90DF91CF910895DE
:100A9000CF93DF93CDB7DEB7F89481E0DF91CF91AC
:100AA0000895CF93DF9300D0CDB7DEB79A838983C3
:100AB0008FE590E029813A81F9012081FC012083B2
:100AC0000F900F90DF91CF910895CF93DF93CDB723
:100AD000DEB788E390E028E330E0F90120812E7F43
:100AE000FC01208387E390E027E330E0F9012081D7
:100AF0002E7FFC012083DF91CF910895CF93DF9368
:100B000000D000D0CDB7DEB79C838B831982809153
:100B10003101882309F41AC280913201882F90E0B4
:100B20008731910509F4BCC088319105C4F4873040
:100B3000910509F4E7C08830910544F482309105AD
:100B400009F453C08330910519F1C1C18131910578
:100B500009F4A6C08331910509F4EBC0B8C18A310C
:100B6000910509F41EC18B3191054CF48831910532
:100B700009F4D4C08931910509F4BAC0A8C18D31F6
:100B8000910509F463C18F31910509F46CC09FC1CF
:100B90008091350190913601292F332780913501BD
:100BA000909136018095909590702817390709F03B
:100BB00091C18091350190913601907090933601EA
:100BC000809335018091370190913801382F222789
:100BD0008091350190913601822B932B90933601B1
:100BE0008093350181E0898375C1809135019091B1
:100BF0003601292F33278091350190913601809558
:100C0000909590702817390761F480913501909183
:100C100036019070909336018093350181E089838D
:100C20005BC1809133019091340127E88E3E920799
:100C300009F052C18BE0809332018091350190918F
:100C40003601892F99279093340180933301809145
:100C50003501909136019070909336018093350163
:100C600081E0898339C18091350190913601292F26
:100C70003327809135019091360180959095907041
:100C80002817390709F02AC1809135019091360162
:100C90009070909336018093350181E089831EC165
:100CA000809135019091360196958795817090706D
:100CB000982F81E0392F38278091350190913601A6
:100CC0008170907021E0009709F020E0832F822747
:100CD000882309F405C180913501909136019695DC
:100CE0008795909336018093350181E08983F8C020
:100CF0008091350190913601009709F4F3C081E0AD
:100D00008983F0C080913301909134018F7D90935D
:100D100034018093330181E08983EBC080913501F8
:100D2000909136018D37910509F4DEC081E0898309
:100D3000DBC080913501909136018C709070969552
:100D40008795969587959093340180933301809190
:100D5000350190913601807090719C0136952795F0
:100D6000369527958091350190913601837090706A
:100D7000982F8827282B392B8091350190913601A7
:100D8000807F9F70929582958F7089279F708927A9
:100D9000822B932B909336018093350181E08983D8
:100DA000A8C08091350190913601807090710097B4
:100DB00009F49CC080913501909136018F7190703B
:100DC00085319105E9F48091350190913601969530
:100DD0008795929582958F7089279F708927909328
:100DE00036018093350180913501909136018F77DE
:100DF0009070909336018093350181E0898376C0AD
:100E000080913501909136018F71907080319105FC
:100E100009F06CC0809135019091360196958795C7
:100E2000929582958F7089279F70892790933601BC
:100E300080933501809135019091360180689093BF
:100E400036018093350181E0898350C0809135015E
:100E500090913601892F992782958F70282F809144
:100E600035019091360180709F70892F992728272E
:100E70008091350190913601807F90709295829596
:100E80008F7089279F708927922F98278FE0892755
:100E90008A8380913501909136019C012F703070CA
:100EA0008A81882F90E02817390711F58091350144
:100EB00090913601929582958F7089279F7089272E
:100EC000909336018093350181E0898311C081E0E0
:100ED00089830FC000000DC000000BC0000009C0D6
:100EE000000007C0000005C0000003C0000001C0F2
:100EF00000008981882341F1209132018B819C81FE
:100F0000FC01208320913301309134018B819C813D
:100F1000FC013283218320913501309136018B8190
:100F20009C81FC0134832383209139018B819C8136
:100F3000FC01258310923601109235011092340184
:100F400010923301109239011092310189810F9072
:100F50000F900F900F90DF91CF910895CF93DF9373
:100F60000F92CDB7DEB7898380910E01882341F4BB
:100F700080910F018F3021F4898180930D0194C0FD
:100F80009091180180910E01891708F444C0909146
:100F9000190180910E01891708F03DC080911E0152
:100FA000882309F18981882F90E020910E01422F3A
:100FB00050E020911801222F30E0BA01621B730B20
:100FC0009B01FC0102C0EE0FFF1F2A95E2F79F0173
:100FD00080913A0190913B01822B932B90933B019E
:100FE00080933A0161C080913A0190913B01880F52
:100FF000991F90933B0180933A018981282F30E01B
:1010000080913A0190913B01822B932B90933B016D
:1010100080933A0149C090911A0180910E0189177D
:1010200008F442C090911B0180910E018917E0F5F0
:1010300080911E01882309F18981882F90E02091F9
:101040000E01422F50E020911A01222F30E0BA0108
:10105000621B730B9B01FC0102C0EE0FFF1F2A9560
:10106000E2F79F0180913C0190913D01822B932BEF
:1010700090933D0180933C0117C080913C01909179
:101080003D01880F991F90933D0180933C01898118
:10109000282F30E080913C0190913D01822B932BD1
:1010A00090933D0180933C0180910F018C3119F5A3
:1010B00080910E018D30F8F080910E018A31D8F4C4
:1010C0008981882F90E020910E01222F30E02D5051
:1010D0003040AC0102C0440F551F2A95E2F79A0137
:1010E00080913E0190913F01822B932B90933F0181
:1010F00080933E01BCC080910F01833019F580912F
:101100000E018131F8F080910E018531D8F489818A
:10111000882F90E020910E01222F30E021513040A5
:10112000BC0102C0660F771F2A95E2F79B018091F0
:10113000420190914301822B932B90934301809322
:10114000420195C080910F01853009F090C08091D7
:101150000E018431F8F080910E018831D8F4898134
:10116000882F90E020910E01222F30E0285030404F
:10117000FC0102C0EE0FFF1F2A95E2F79F0180914C
:101180003C0190913D01822B932B90933D018093E4
:101190003C011DC080910E018831C8F080910E0184
:1011A0008C31A8F48981882F90E020910E01222FA4
:1011B00030E024513040022E02C0880F991F0A945B
:1011C000E2F7982F80914A01892B80934A01809100
:1011D0000E01803308F04BC08981882321F1809172
:1011E0000E01282F269526952695822F90E0222FF6
:1011F00030E02C5B3E4FF9012081622F20910E01DF
:10120000222F30E0A9014770507021E030E0042E19
:1012100002C0220F331F0A94E2F7262B8C5B9E4FED
:10122000FC01208324C080910E01282F269526954D
:101230002695822F90E0222F30E02C5B3E4FF90163
:101240002081622F20910E01222F30E0A9014770EA
:10125000507021E030E0042E02C0220F331F0A94A8
:10126000E2F7209526238C5B9E4FFC012083809122
:101270000E018F5F80930E010F90DF91CF91089543
:10128000CF93DF9300D0CDB7DEB78A8380910F0173
:10129000882329F080910E018250898304C08091B7
:1012A0000E0181508983909129018981891728F144
:1012B00090912A018981891700F58A81882F90E011
:1012C0002981422F50E020912901222F30E0BA01DC
:1012D000621B730B9B01AC0102C0440F551F2A9582
:1012E000E2F79A0180913E0190913F01822B932B6E
:1012F00090933F0180933E0129C090912B018981F9
:10130000891720F190912C0189818917F8F48A813D
:10131000882F90E02981422F50E020912B01222F2D
:1013200030E0BA01621B730B9B01AC0102C0440F99
:10133000551F2A95E2F79A01809140019091410151
:10134000822B932B90934101809340010F900F903B
:10135000DF91CF910895CF93DF93CDB7DEB7289774
:101360000FB6F894DEBF0FBECDBF86E390E0FC0160
:10137000808181708E8380913101882311F00C94DB
:10138000291880914B01882309F079C08E81882328
:1013900039F480914C018F5F80934C010C94291893
:1013A00080914C01882339F181E080934B0181E0E9
:1013B00080934D0110924E0110923D0110923C011C
:1013C00010923B0110923A0110924A011092410191
:1013D0001092400110923F0110923E018FEF8093D6
:1013E0000E0181E090E09093500180934F011092A4
:1013F00051010C9429188091520190915301FFEFF3
:101400008F3F9F0711F40C942918809152019091FD
:1014100053010196909353018093520180910101F1
:10142000909102012FEF8F3F920711F40C9429182D
:1014300080910101909102010196909302018093A5
:101440000101809101019091020145E087399407E3
:1014500010F40C9429188091540190915501009733
:1014600011F40C94291810925501109254018FEF29
:101470009FEF90930201809301010C9429188091B1
:101480004D01882309F41AC58E818823A9F1809122
:101490004F019091500101969093500180934F011C
:1014A00080914C01882F90E0823291053CF0809130
:1014B0004C01882F90E08733910544F080914F01D3
:1014C0009091500151E08733950750F480914F017E
:1014D00090915001E2E08F349E0710F40C94E915CE
:1014E0008091320110924B0110924C0110925001E8
:1014F00010924F010C94E9151A8219821092200162
:1015000080914C01882F90E08A329105D4F080912F
:101510004C01882F90E0873391059CF480914F0116
:10152000909150018930910560F080914F01909128
:1015300050018E30910528F484E191E09A838983EB
:101540001BC480913201843109F580914C01882FB0
:1015500090E08B369105D4F080914C01882F90E07B
:101560008E3F91059CF480914F01909150018D34F4
:10157000910560F080914F01909150018D3D910552
:1015800028F485E291E09A838983F6C380914C0127
:10159000882F90E08D379105D4F080914C01882FF1
:1015A00090E08C3E91059CF480914F019091500108
:1015B0008E33910560F080914F01909150018737F3
:1015C000910528F487E491E09A838983D5C38091BB
:1015D0004C01882F90E08D3791051CF180914C01D2
:1015E000882F90E08C3E9105E4F480914F0190911A
:1015F00050018E319105A8F080914F0190915001DA
:101600008C33910570F480913201843129F485E2A4
:1016100091E09A838983B0C386E391E09A838983BA
:10162000ABC380913201843109F580914C01882F40
:1016300090E08D379105D4F080914C01882F90E097
:101640008C3E91059CF480914F0190915001873020
:10165000910560F080914F01909150018131910589
:1016600028F485E291E09A83898386C380914C01B6
:10167000882F90E082329105E4F080914C01882F10
:1016800090E087339105ACF480914F019091500127
:10169000F1E0813B9F0768F080914F0190915001EC
:1016A00022E08C38920728F485E392E09A838983BC
:1016B00063C380914C01882F90E080359105D4F070
:1016C00080914C01882F90E0853691059CF48091A3
:1016D0004F01909150018035910560F080914F014C
:1016E000909150018536910528F488E591E09A8320
:1016F000898342C380914C01882F90E08733910504
:10170000D4F080914C01882F90E0863591059CF4AF
:1017100080914F01909150018733910560F0809145
:101720004F01909150018635910528F489E691E0AA
:101730009A83898321C380914C01882F90E08C3358
:101740009105D4F080914C01882F90E08C34910564
:101750009CF480914F01909150018D31910560F082
:1017600080914F01909150018732910528F48AE7CA
:1017700091E09A83898300C380914C01882F90E087
:1017800082309105D4F080914C01882F90E0853013
:1017900091059CF480914F019091500185389105FD
:1017A00060F080914F0190915001863A910528F4A4
:1017B0008BE891E09A838983DFC280914C01882F66
:1017C00090E0803191053CF080914C01882F90E0B1
:1017D0008531910584F080914C01882F90E0803212
:1017E00091050CF4A0C080914C01882F90E08932C3
:1017F00091050CF098C080914F019091500180317B
:10180000910538F080914F019091500185319105FB
:1018100080F080914F01909150018032910508F441
:1018200082C080914F01909150018932910508F05A
:101830007AC080914C01882F90E087329105E4F0C6
:1018400080914C018D32C0F480914F0190915001F4
:101850008131910588F080914F019091500185313F
:10186000910550F480E291E023E132E0B90141E1D9
:1018700050E00E94762F25C080914C01882F90E087
:1018800083329105F4F080914C01882F90E08E32E4
:101890009105BCF480914F019091500183329105E4
:1018A00080F080914F01909150018E32910548F463
:1018B00080E291E024E232E0B90141E150E00E948F
:1018C000762F8CE991E09A83898380914F019091E2
:1018D0005001909357018093560180914C01882FBD
:1018E00090E0853191053CF080914C01882F90E08B
:1018F0008932910574F080914F01909150018531AA
:10190000910568F080914F019091500189329105C5
:1019100030F41092580180E4809351012DC281E08F
:101920008093580129C280914C01882F90E0853026
:10193000910544F180914C01882F90E08930910508
:101940000CF580914F01909150018F31910538F045
:1019500080914F01909150018932910570F08091F2
:101960004F01909150018C30910560F080914F01B2
:10197000909150018231910528F48DEA91E09A838B
:101980008983FAC180914C01882F90E089309105BC
:1019900044F180914C01882F90E08E3091050CF538
:1019A00080914F01909150018035910538F08091E0
:1019B0004F01909150018536910570F080914F0153
:1019C000909150018332910560F080914F01909188
:1019D00050018E32910528F489E792E09A83898339
:1019E000CBC180914C01882F90E08E309105D4F0CE
:1019F00080914C01882F90E08E3191059CF480916C
:101A00004F01909150018331910560F080914F0119
:101A1000909150018732910528F48AE892E09A83E8
:101A20008983AAC180914C01882F90E08F32910563
:101A30000CF180914C01882F90E08D339105D4F406
:101A400080914F01909150018F30910598F08091D5
:101A50004F01909150018631910560F48EEB91E039
:101A60009A838983109257011092560181E08093E6
:101A7000580182C180914C01882F90E082309105FD
:101A8000D4F080914C01882F90E0853091059CF432
:101A900080914F01909150018434910560F08091C4
:101AA0004F01909150018E34910528F48FEC91E014
:101AB0009A83898361C180914C01882F90E08431A1
:101AC0009105D4F080914C01882F90E082329105ED
:101AD0009CF480914F01909150018430910560F009
:101AE00080914F01909150018A30910528F480EE49
:101AF00091E09A83898340C180914C01882F90E0C6
:101B0000893091052CF180914C01882F90E08E3026
:101B10009105F4F480914F01909150018B32910521
:101B2000B8F080914F01909150018134910580F47B
:101B300081EF91E09A83898380914F0190915001C8
:101B4000909357018093560181E08093580114C10E
:101B500080914C01882F90E0843091053CF0809179
:101B60004C01882F90E08830910574F080914C01F1
:101B7000882F90E0883091059CF180914C01882F4E
:101B800090E08F30910564F580914F019091500164
:101B90008930910538F080914F01909150018E303D
:101BA000910570F080914F01909150018231910523
:101BB000B8F080914F01909150018B31910580F4E4
:101BC00082E092E09A83898380914F019091500145
:101BD000909357018093560181E080935801CCC0C7
:101BE00080914C01882F90E087329105BCF0809164
:101BF0004C018D3298F480914F01909150018131C8
:101C0000910560F080914F019091500185319105CF
:101C100028F483E192E09A838983AEC080914C01DD
:101C2000882F90E083329105D4F080914C01882F69
:101C300090E08E3291059CF480914F01909150017B
:101C40008332910560F080914F01909150018E3266
:101C5000910528F484E292E09A8389838DC0809173
:101C60004C01882F90E083309105D4F080914C0195
:101C7000882F90E0873091059CF480914F019091DE
:101C800050018F36910560F080914F019091500185
:101C90008B38910528F486E492E09A8389836CC09E
:101CA00080914C01882F90E08A329105D4F0809188
:101CB0004C01882F90E0873391059CF480914F016F
:101CC000909150018D30910560F080914F0190917D
:101CD00050018431910528F487E592E09A83898345
:101CE0004BC080914C01882F90E018161906D4F44F
:101CF00080914C01882F90E0863091059CF4809172
:101D00004F01909150018B30910560F080914F010F
:101D1000909150018F31910528F488E692E09A83E2
:101D200089832AC080914C01882F90E084309105EE
:101D30000CF180914C01882F90E089309105D4F40A
:101D400080914F01909150018530910598F08091DC
:101D50004F01909150018930910560F48BE992E038
:101D60009A838983109257011092560181E08093E3
:101D7000580102C010924B0180914B01882349F019
:101D80008FE091E029813A81B90141E150E00E9460
:101D9000762F10920E0180911F01882F90E08170A4
:101DA0009070882309F443C080910F01873109F4B2
:101DB0003EC080910F018930D1F180911101282F0F
:101DC00030E080914F019091500128173907E0F4DD
:101DD00080911101882F90E0880F991F9C018091BC
:101DE0004F01909150012817390770F080911F0121
:101DF000882F90E08270907021E0009709F020E039
:101E0000822F0E94AE074FC080915801882309F0AD
:101E10004AC080911F01882F90E08270907021E06D
:101E2000009709F420E0822F0E94AE073CC0809109
:101E30001F01882F90E0847090700097A9F5809121
:101E40000F018830B1F480914F01909150018F3192
:101E5000910558F080914F01909150018932910580
:101E600020F481E00E94AE071FC080E00E94AE0710
:101E70001BC080910F018E31B9F480914F01909178
:101E800050018035910558F080914F01909150019B
:101E90008536910520F481E00E94AE0705C080E000
:101EA0000E94AE0701C0000081E080934C011092B7
:101EB000500110924F0110924D018BC680914E013E
:101EC000882309F474C61B828E81882309F4AEC26C
:101ED00090911C0180910E01981761F580911D0170
:101EE000813041F580911F01882F90E081709070C2
:101EF0008823A1F480911F01882F90E08470907056
:101F0000009761F49091140180914C01891748F079
:101F10009091150180914C01981718F010921D01B5
:101F20008DC210924B0110924C01109250011092F0
:101F30004F0184C280914F0190915001019690937E
:101F4000500180934F0180910F01813099F580916C
:101F50004F01909150018F30910560F180910E01F9
:101F60008B3040F180910E018F5F80931C0181E0E6
:101F70008B8380910E01882F90E00B97982F8827F4
:101F80009C0180913A0190913B01822B932B90937D
:101F90003B0180933A0190911A0180910E01890FC3
:101FA0008F5F80931B018DE090E0909350018093B0
:101FB0004F0144C280911F01882F90E0847090707F
:101FC0000097F9F080910F018A31D9F480910E01C8
:101FD000882F90E020E130E0A901481B590BCA018D
:101FE00082959295907F9827807F98279C01809179
:101FF0004F01909150018217930718F081E08B8375
:102000001DC280910F018F3009F08EC080911D019B
:10201000882309F089C080914F019091500183334A
:102020009105A8F180910E01853021F080910E017B
:10203000863069F581E08B8381E080931D0188E122
:1020400080930F0187E080931C0110921801109279
:10205000190110921A0187E080931B0180913C01C5
:1020600090913D01880F991F90933D0180933C0111
:1020700080910D01282F30E080913C0190913D012D
:10208000822B932B90933D0180933C014CC0809117
:102090001301882F90E0880F991F9C0180914F01B8
:1020A000909150018217930768F080910E0188305B
:1020B00048F08AE080931C0181E08B8381E080936B
:1020C0001D0131C080910E018A3008F4B2C180E157
:1020D00080930F0189E08093180181E180931901B9
:1020E00081E080931A0189E080931B0180913C017B
:1020F00090913D0180709370009709F49AC180918E
:102100003C0190913D01892F992790933B01809349
:102110003A0180913C0190913D01907090933D0176
:1021200080933C0186C185C180910F01873109F000
:102130007EC080911D01882309F079C08091130130
:10214000882F90E0880F991F9C0180914F019091FA
:1021500050018217930768F080910E018F3048F08C
:1021600081E180931C0181E08B8381E080931D01DC
:1021700062C180910E01813108F45DC181E18093DB
:102180000F01109218018BE0809319018BE080936E
:102190001A0186E180931B0180913A0190913B01E5
:1021A000880F991F880F991F90933B0180933A01E4
:1021B00080913C0190913D019C010024220F331F2E
:1021C000001C220F331F001C232F302D80913A0159
:1021D00090913B01822B932B90933B0180933A018A
:1021E00080913C0190913D018F73907090933D01DF
:1021F00080933C0180913C0190913D0182959295A4
:10220000907F9827807F982790933D0180933C0191
:1022100080915801282F30E080913C0190913D0140
:10222000822B932B90933D0180933C0104C18091BC
:102230001F01882F90E081709070882321F1809198
:102240001301882F90E0880F991F9C0180914F0106
:102250009091500182179307B0F080910E01282FC2
:1022600030E080911C01882F90E0029728173907F1
:1022700054F080911D01882331F481E08B8381E04B
:1022800080931D01DBC080914F019091500151E07E
:102290008733950708F4D1C080910E01282F30E0D4
:1022A00080911C01882F90E001972817390751F47D
:1022B00080911D01882331F480910E018F5F8093FE
:1022C0000E01BCC080910F01823071F580910E012A
:1022D000803121F080910E01813131F581E08093D0
:1022E0001D0184E180930F0180910E0180931C01F8
:1022F00080913A0190913B01929582958F70892748
:102300009F70892790933D0180933C0180913A0111
:1023100090913B018F70907090933B0180933A01B4
:1023200081E080934B018AC080910F018C31E1F5EF
:1023300080910E018032C1F581E080931D0182E021
:1023400080930F0180910E0180931C0180913E01CA
:1023500090913F019C01322F22273295330F307E1E
:1023600080913A0190913B01822B932B90933B01FA
:1023700080933A0180913E0190913F019C013695F6
:102380002795369527953695279580913C01909114
:102390003D01982F8827990F990F822B932B9093AB
:1023A0003D0180933C014AC080910F018C31A9F519
:1023B00080910E01803121F080910E01813169F50B
:1023C00081E080931D0184E180930F0180910E01D3
:1023D00080931C0180913A0190913B019C013295C0
:1023E00022952F7023273F70232780913E019091E3
:1023F0003F01982F8827990F822B932B90933D01B3
:1024000080933C0180913A0190913B018F709070D4
:1024100090933B0180933A0111C010924B011092AE
:102420004C011092500110924F0107C081E08B8344
:1024300005C0000003C0000001C000008B8188239C
:1024400009F4C7C380911F01882F90E081709070BC
:10245000882309F4FEC19091110180914C019817D5
:1024600008F06FC080910F018930E1F480910E0176
:102470008430C1F480914C01882F90E08031910527
:102480008CF080911C01843239F481E00E94AE0707
:1024900081E08093580119C180E00E94AE0710923C
:1024A000580113C180911F01882F90E082709070B5
:1024B00021E0009709F020E0822F0E94AE07809172
:1024C0000F01893021F580910E01843001F5809152
:1024D0004C01882F90E080319105CCF081E00E9482
:1024E000AE0780911301882F90E0880F991F9C01FF
:1024F00080914F01909150012817390718F41092DC
:102500005801E3C081E0809358010000DEC0809153
:102510001F01882F90E08270907021E0009709F4ED
:1025200020E0822F0E94AE0780911F01882F90E04B
:102530008270907021E0009709F420E02093580108
:10254000C4C09091100180914C01891708F456C0C5
:102550009091110180914C01981708F44FC080911F
:102560001301282F30E080915601909157012817D0
:102570003907C8F480911301882F90E0880F991FC4
:102580009C0180915601909157012817390758F006
:102590009091580181E0992309F080E08C838C812F
:1025A0008093580103C0809158018C8380910F0162
:1025B000893001F580910E018130E1F48C81813008
:1025C000C9F484E280931C0185E080931801809116
:1025D0001801815F80931901809119018F5F8093A9
:1025E0001A0180911A01815F80931B0110923B01B7
:1025F00010923A018C810E94AE0767C08091200141
:10260000823161F580914C01882F90E083309105F3
:102610002CF180914C01882F90E08B309105F4F4DF
:1026200080914F01909150018A30910538F080914E
:102630004F01909150018331910568F080914F01D5
:1026400090915001009751F080914F01909150016D
:102650008730910518F410920F0137C08091200146
:10266000833169F580914C01882F90E08930910584
:1026700034F180914C01882F90E080319105FCF479
:1026800080914F01909150018530910538F08091F3
:102690004F01909150018E30910570F080914F0163
:1026A000909150018C30910550F080914F019091A4
:1026B00050018931910518F410920F0106C0109253
:1026C0004B011092500110924F01809120018231F4
:1026D00009F057C080914C01882F90E0833091051C
:1026E0000CF44FC080914C01882F90E08B30910505
:1026F0000CF047C080914F01909150018A309105B4
:1027000058F080914F01909150018331910520F450
:1027100081E00E94400910C080914F0190915001CA
:10272000009751F080914F019091500187309105B1
:1027300018F480E00E94400980910F01882309F578
:102740008FE091E020E231E041E1F90100802F5F6C
:102750003F4FFC010082019641504423B1F7109293
:10276000200180913E0190913F0190933B01809325
:102770003A01809140019091410190933D018093F5
:102780003C0180912001833109F058C080914C01B7
:10279000882F90E0893091050CF450C080914C0155
:1027A000882F90E0803191050CF048C080914F0156
:1027B000909150018530910558F080914F01909192
:1027C00050018E30910520F481E00E94400911C033
:1027D00080914F01909150018C30910550F0809183
:1027E0004F01909150018931910518F480E00E94C9
:1027F000400980910F01882309F58FE091E020E2E4
:1028000031E041E1F90100802F5F3F4FFC01008280
:10281000019641504423B1F71092200180913E016E
:1028200090913F0190933B0180933A018091400148
:102830009091410190933D0180933C0180914F0123
:1028400090915001909357018093560110924E0140
:10285000AAC180911F01882F90E08470907000972A
:1028600009F45CC015C081E00E94AE079091100190
:1028700080914C01891750F090914C01809110018A
:10288000F92FF81B8F2F80934C0102C010924C013E
:1028900090911C0180910E01891758F590911101BA
:1028A00080914C019817F8F224C080E00E94AE0796
:1028B00080911201282F30E080914F0190915001BA
:1028C0008217930788F020914F0130915001809139
:1028D0001201882F90E0A901481B590BCA0190935F
:1028E000500180934F0106C01092500110924F0189
:1028F00001C0000090911C0180910E01891758F4CD
:1029000080911301282F30E080914F019091500168
:102910002817390750F210924E0145C180910F01DE
:10292000833009F069C080910E01803109F064C0E4
:1029300080914C01882F90E0873091050CF18091B7
:102940004C01882F90E080319105D4F480914F01A3
:10295000909150018035910598F080914F019091B0
:1029600050018536910560F410924E01109243019A
:102970001092420180910E018F5F80930E013BC047
:1029800080914C01882F90E0873091056CF1809107
:102990004C01882F90E08031910534F58AE08093D6
:1029A0000F0180E180931A0180E280931B0180E295
:1029B00080931C0180914F019091500186319105C7
:1029C00068F080914F01909150018D32910530F463
:1029D00081E00E94AE0710924E010DC080E00E947F
:1029E000AE0710924E0107C010924B011092500199
:1029F00010924F01D8C0D7C080910F018C3131F5B2
:102A000080910E01883011F580914F019091500115
:102A10008E339105D8F080914F0190915001873706
:102A20009105A0F48BE180930F011092180188E0CA
:102A30008093190188E080931A0180E180931B0143
:102A400080E180931C0110924E01ADC09091100165
:102A500080914C01891710F19091110180914C01E6
:102A60009817E0F080911201282F30E080914F01FB
:102A7000909150018217930788F080911301282FBD
:102A800030E080914F01909150012817390730F0C4
:102A900081E00E94AE0710924E0185C09091140112
:102AA00080914C01891710F19091150180914C0192
:102AB0009817E0F080911601282F30E080914F01A7
:102AC000909150018217930788F080911701282F69
:102AD00030E080914F01909150012817390730F074
:102AE00080E00E94AE0710924E015DC080910F0100
:102AF000893109F052C080914C01882F90E08330D9
:102B000091050CF44AC080914C01882F90E08730E9
:102B100091050CF042C080910E01883021F0809127
:102B20000E01863071F480914F01909150018235F1
:102B3000910538F080914F019091500187369105B1
:102B400090F080910E018C3041F580914F01909171
:102B500050018F36910508F180914F0190915001FD
:102B60008B389105D0F480910E01883081F48091EA
:102B70000E018F5F80930E0180913C0190913D0189
:102B8000880F991F90933D0180933C0103C081E021
:102B90000E94AE0710924E0106C010924B01109297
:102BA000500110924F0181E080934C0112C08E8140
:102BB000882331F480914C018F5F80934C0109C0D0
:102BC00081E080934E0181E090E0909350018093EA
:102BD0004F0180914B01882309F43BC290911C0165
:102BE00080910E01981709F034C280911D0188234D
:102BF00009F02FC2209103013091040180913C0122
:102C000090913D012817390771F4809152019091FC
:102C1000530156E08034950730F4809159018F5F5D
:102C20008093590102C01092590180910F018130A7
:102C300069F480915901813021F0809159018230ED
:102C400029F41092530110925201B5C180910F01E5
:102C5000853049F480915901813029F41092530153
:102C600010925201A8C180910F018A3069F48091BD
:102C70005901882F90E081709070882329F010927C
:102C800053011092520197C180910F018D3069F468
:102C900080915901882F90E081709070882329F0ED
:102CA000109253011092520186C181E0809331014C
:102CB0008FE590E0FC01808188870E9448058D8324
:102CC00006C0809189018068809389011D828D8171
:102CD0008823B9F7CE0108960E94510580910F0113
:102CE000883009F04CC080913C0190913D01809565
:102CF00090959C0133708091540190915501281753
:102D0000390709F5809154019091550190933D0147
:102D100080933C01109255011092540180910F0153
:102D20008093320180913A0190913B01909334015C
:102D30008093330180913C0190913D019093360145
:102D40008093350138C180913C0190913D018370A1
:102D50009070009769F480913C0190913D019093AF
:102D6000550180935401109202011092010104C098
:102D70001092550110925401109231011CC18091A2
:102D80000F018F3059F480913C0190913D01F1E0A9
:102D90008F3F9F0719F4109231010DC180910F01EF
:102DA000803189F480913A0190913B018F3F9105E8
:102DB00051F480913C0190913D018E3F910519F4B1
:102DC00010923101F8C080910F01823041F580915D
:102DD0000E01882321F5809152019091530129E041
:102DE00080369207D0F4809105019091060190936E
:102DF0003B0180933A0180910301909104019093EB
:102E00003D0180933C0180913901816080933901BB
:102E1000109253011092520102C010923101809120
:102E20000F018530C1F580914401982F9F708091EA
:102E3000440182958F709827809145018F70982763
:102E40008091450182958F7089278F838F81282FEC
:102E500030E080914601882F90E08F7090702817A5
:102E6000390711F01092310190914601809147018C
:102E700098278091480189278F83909149018F81FC
:102E8000981711F0109231019091390180914A0107
:102E9000892B8093390180910F01893041F4809111
:102EA0001C01843221F485E18093320104C08091B9
:102EB0000F018093320180910F01823109F045C0EA
:102EC00080913C0190913D018F709070009781F04E
:102ED00080913C0190913D01929582958F70892758
:102EE0009F708927806890933D0180933C010EC0BC
:102EF00080913C0190913D01929582958F70892738
:102F00009F70892790933D0180933C0180913A0105
:102F100090913B01880F991F880F991F9C01207089
:102F20003F7080913C0190913D01822B932B9093B7
:102F30003D0180933C0180913A0190913B018F7358
:102F4000907090933B0180933A0180913A01909167
:102F50003B01909334018093330180910F018230C3
:102F600041F480913A0190913B0190930601809346
:102F7000050180910F01873071F480915101282F54
:102F800030E080913C0190913D01822B932B9093F6
:102F90003D0180933C0180913C0190913D019093D3
:102FA00036018093350180914201909143019093C5
:102FB000380180933701809131018823B9F1209144
:102FC00003013091040180913C0190913D0128174B
:102FD0003907C1F4209105013091060180913A0131
:102FE00090913B012817390769F480915201909123
:102FF00053014BE0883B940728F4809139018160AC
:103000008093390180913A0190913B0190930601A0
:103010008093050180913C0190913D0190930401C2
:1030200080930301109253011092520110924B01B0
:1030300010923D0110923C0110924C0110925001EF
:1030400010924F0180913201843119F483EB809307
:103050004C018091310128960FB6F894DEBF0FBE67
:10306000CDBFDF91CF910895CF93DF93CDB7DEB77A
:1030700080916301882361F485E490E025E430E0E9
:10308000F90120812861FC01208381E080936301A4
:10309000DF91CF910895CF93DF93CDB7DEB78091C5
:1030A00063018823A1F085E490E025E430E0F90194
:1030B00020812F7EFC01208382E390E022E330E038
:1030C000F90120812F77FC01208310926301DF91A9
:1030D000CF910895CF93DF930F92CDB7DEB7898359
:1030E00083E490E02981FC0120830F90DF91CF9150
:1030F0000895CF93DF93CDB7DEB782E390E022E36C
:1031000030E0F90120812F77FC01208381E390E0FA
:1031100021E330E0F90120812068FC01208385E46F
:1031200090E028E0FC01208385E490E025E430E095
:10313000F90120812160FC01208385EA0E946A1840
:10314000DF91CF910895CF93DF93CDB7DEB7809114
:103150005A01DF91CF910895CF93DF9300D000D033
:103160000F92CDB7DEB79C838B836D831A82198251
:103170001AC089819A81880F991F9A8389838B81CC
:103180009C8181709070882329F089819A81816067
:103190009A8389838B819C81969587959C838B8369
:1031A0008D8181508D838D81882319F789819A8142
:1031B0000F900F900F900F900F90DF91CF91089587
:1031C0000F931F93CF93DF93CDB7DEB72C970FB636
:1031D000F894DEBF0FBECDBF9B878A876C878C8536
:1031E000882331F0000080915A018823E1F706C05E
:1031F00080915A01882311F080E063C68A859B85FF
:10320000FC01808180935B018A859B85FC0185811F
:103210008F708093620180915B01882F90E0AA27D4
:1032200097FDA095BA2F41E050E02FE130E0841BDC
:10323000950B2817390708F441C6865D9F4FFC019E
:10324000EE0FFF1F0590F491E02D09948A859B8570
:10325000FC0181819281892F99278093640180915B
:103260006401843028F0809164018350898301C017
:1032700019828A859B85FC01838194816FE00E947D
:10328000AC189B838A838A819B8180789F77880F83
:10329000892F881F990B919580935C018A81880FF3
:1032A00080935D0189818823F1F08A859B85FC01EB
:1032B0008181928165E00E94AC189D838C8320916E
:1032C0005D018C819D8180719070929582958F7047
:1032D00089279F708927822B80935D018C8182953D
:1032E000807F80935E0181E080935A01E8C58A85E2
:1032F0009B85FC01238134818A859B85FC0181812A
:103300009281982F8827822B932B9B838A838EEE22
:1033100097E89D838C838C819D8160E10E94AC182D
:103320009D838C838A819B8160E10E94AC189B8382
:103330008A8382E080935B018C819D81892F99270C
:1033400080935C018C8180935D018A819B81892FB0
:10335000992780935E018BE880935F0181E08093E1
:103360005A01ADC58A859B85FC018181928160E10E
:103370000E94AC189D838C838A859B85FC01838188
:10338000948160E10E94AC189B838A838C819D812B
:10339000892F992780935C018C8180935D018A81BC
:1033A0009B81892F992780935E018A819B81892F38
:1033B0009927809580935F0181E080935A017FC5B2
:1033C0008A859B85FC018181928168E00E94AC180E
:1033D0009D838C838A859B85FC018381948168E031
:1033E0000E94AC189B838A838C8180935C018A81C4
:1033F00080935D0181E080935A0161C58A859B8538
:10340000FC01818192816DE00E94AC189D838C83C8
:103410008A859B85FC018381948168E00E94AC18B9
:103420009B838A838C819D81807E9F7196958795F1
:10343000929582958F7089279F70892780935C0170
:103440008C81282F220F220F220F8C819D81809545
:10345000909580709C71892F992786958695822BEF
:1034600080935D018C819D81809590958C7F937078
:10347000969587959695879580935E018C8180952A
:10348000282F2295220F220F207C8A819B818C7FFE
:1034900090709695879596958795822B80935F017E
:1034A0008A81282F2295220F220F207C8A819B81DE
:1034B000809590958C7F9070969587959695879539
:1034C000822B809360018A8180958295880F880F76
:1034D000807C8093610181E080935A01F0C48A85E9
:1034E0009B85FC018181928160E10E94AC189D83E3
:1034F0008C838A859B85FC018381948160E10E9495
:10350000AC189B838A838C819D81892F9927809316
:103510005C018C8180935D018A81282F207F8A81C4
:103520009B81892F992782958F70822B80935E01D2
:103530008A819B8180709F70929582958F70892778
:103540009F708927282F8A819B818070907F80952A
:103550009095892F992782958F70822B80935F0198
:103560008A819B8180709F708095909592958295BD
:103570008F7089279F708927807F8093600181E009
:1035800080935A019CC48A859B85FC01818192812C
:1035900060E10E94AC189D838C838A859B85FC0129
:1035A0008381948160E10E94AC189B838A838C8123
:1035B0009D81892F992780935C018C8180935D0187
:1035C0008A819B81892F992780935E018A818093CC
:1035D0005F0181E080935A0172C48A859B85FC015A
:1035E000818192816CE00E94AC189D838C838A85D6
:1035F0009B85FC01838194816CE00E94AC189B83C5
:103600008A838A819B81807F9F70929582958F703B
:1036100089279F70892780935C018A81282F2295B2
:10362000207F8C819D8180709F70892F9927822BAC
:1036300080935D018C8180935E0181E080935A01CB
:103640003EC48A859B85FC018181928160E10E9454
:10365000AC189D838C838A859B85FC018381948132
:1036600060E10E94AC189B838A838A859B85FC015C
:103670008581882F90E09595879595958795959567
:1036800087959595879564E00E94AC189F838E83FB
:103690008C81282F2F708C819D81807F90709295D6
:1036A00082958F7089279F70892728278C819D811B
:1036B00080709F70892F992728278C819D81892F61
:1036C000992782958F7082278F7088878C819D8142
:1036D000892F992780935C018C8180935D01888577
:1036E000982F9295907F8A818F70892B80935E01AD
:1036F0008E81282F2295207F8A819B81892F99276F
:1037000082958F70822B80935F018A819B81807F5D
:103710009F70929582958F7089279F7089278093DB
:10372000600190915E0180915F0198278091600116
:103730008927888788858093610181E080935A0179
:10374000BEC380917E01882311F080E001C080E437
:1037500080937E018A859B85FC018181928187709F
:10376000982F990F990F990F80917E01292F282B5F
:103770008A859B85FC0183819481887390709695DE
:1037800087959695879596958795822B80688093E7
:103790005C018A859B85FC01838194818295880FD9
:1037A000807E80935D0181E080935A0188C380917F
:1037B0007F01882311F080E001C080E480937F01C5
:1037C0008A859B85FC01818192818F70982F990F4A
:1037D000990F80917F01292F282B8A859B85FC01D9
:1037E0008381948180739070929582958F708927E0
:1037F0009F708927822B806880935C018A859B85D6
:10380000FC01838194818295807F80935D0181E0BA
:1038100080935A0154C380918001882311F080E085
:1038200001C080E4809380018A859B85FC018381AF
:10383000948180749070009711F080E001C080E85E
:1038400090918001892B282F8A859B85FC0181819D
:1038500092818F71880F282B8A859B85FC0183813B
:1038600094818072907096958795929582958F70CD
:1038700089279F708927822B80935C018A859B858D
:10388000FC0183819481880F880F880F80935D01EC
:1038900081E080935A0113C380918101882311F044
:1038A00080E001C088E0809381018A859B85FC01CE
:1038B00081819281807E9070969587959295829570
:1038C0008F7089279F708927982F80918101892B7C
:1038D000806880935C018A859B85FC01818192814F
:1038E000282F220F220F220F8A859B85FC018381BE
:1038F0009481807E907096958795929582958F7031
:1039000089279F708927822B80935D018A859B85FB
:10391000FC0183819481880F880F880F80935E015A
:1039200081E080935A01CBC280918101882311F0FC
:1039300080E001C088E0809381018A859B85FC013D
:103940008181928180709073892F992782958F70E1
:10395000806E80935C018A859B85FC0181819281C8
:103960009F70929582958F7089279F708927809389
:103970005D018A859B85FC0181819281282F22959A
:10398000207F8A859B85FC0183819481892F9927DB
:1039900082958F70922F982B80918101892B809333
:1039A0005E018A859B85FC0183819481807F9F7065
:1039B000929582958F7089279F70892780935F01E8
:1039C0008A859B85FC01838194818295807F809389
:1039D000600181E080935A0172C28A859B85FC0157
:1039E00081819281282F220F220F220F8A859B85A9
:1039F000FC018381948180789370880F892F881FC0
:103A0000990B9195822B80935C018A859B85FC01A3
:103A100083819481880F80935D018A859B85FC0159
:103A200081819281282F220F220F220F8A859B8568
:103A3000FC01838194818095909580789370880FA4
:103A4000892F881F990B9195822B80935E018A851F
:103A50009B85FC01838194818095880F80935F0111
:103A600081E080935A012BC280918201882311F05A
:103A700080E001C088E0809382018A859B85FC01FB
:103A800081819281982F9295907F80918201292F38
:103A9000282B8A859B85FC01838194818077907097
:103AA000929582958F7089279F708927822B8093AA
:103AB0005C018A859B85FC01838194818295807F4E
:103AC00080935D0181E080935A01F9C18A859B85CD
:103AD000FC0183819481969587959695879580932F
:103AE0005C018A859B85FC01838194818295880F86
:103AF000880F807C80935D0181E080935A01DFC153
:103B00008A859B85FC018381948169E00E94AC18C1
:103B10009B838A838FEF80935C0180EC80935D01AF
:103B20008A819B81969587959695879580688093E5
:103B30005E018A818295880F880F807C80935F0167
:103B400081E080935A01BBC18DE790E067E00E945D
:103B5000AC188C011695102F0027179507958A85AC
:103B60009B85FC018381948167E00E94AC18802BC7
:103B7000912B9B838A838A81880F816080935C016B
:103B80008A819B810024880F991F001C880F991F30
:103B9000001C892F902D80935D0181E080935A0154
:103BA0008EC18A859B85FC018181928168E00E949B
:103BB000AC189D838C838A859B85FC0183819481CD
:103BC00068E00E94AC189B838A838FEB80935C0132
:103BD0008FEF80935D0180E880935E018A819B81F5
:103BE00096958795806880935F018A81282F279515
:103BF000222727958C819D8196958795822B80938E
:103C000060018C818795882787958093610181E089
:103C100080935A0154C18A859B85FC0181819281E0
:103C20009F7096958795929582958F7089279F7042
:103C3000892780935C018A859B85FC018181928123
:103C4000282F220F220F220F8A859B85FC0183815A
:103C500094818F77907096958795929582958F70C5
:103C600089279F708927822B80935D018A859B8598
:103C7000FC0183819481282F220F220F220F8A8535
:103C80009B85FC018381948181709070009711F471
:103C900084E001C080E0822B80935E0181E080930C
:103CA0005A010DC18A859B85FC01818192816EE05C
:103CB0000E94AC189D838C838A859B85FC0183813F
:103CC00094816CE00E94AC189B838A838C818093E2
:103CD0005C0110925D0110925E018A8180935F0108
:103CE0008A8180958093600181E080935A01E7C0CA
:103CF0008A859B85FC018181928162E00E94AC18DB
:103D00009D838C838A859B85FC01838194816BE0F4
:103D10000E94AC189B838A838A818670982F929523
:103D2000990F907E8C8183708295807F292F282B1C
:103D30008A819B8180789770880F892F881F990BC3
:103D40009195822B80935C018A818877982F990FB7
:103D50008A818170880F880F880F892B80935D017D
:103D600081E080935A01ABC08A859B85FC018181EB
:103D7000928164E00E94AC189D838C838A859B8528
:103D8000FC01838194816CE00E94AC189B838A8340
:103D90008C81282F2295207F8A819B8180709F7043
:103DA000892F9927822B80935C018A8180935D0102
:103DB00081E080935A0183C08A859B85FC018381C1
:103DC00094818295880F880F807C80935C0181E0CC
:103DD00080935A0174C08A859B85FC0183819481FC
:103DE00080709F70892F9927282F8A859B85FC01D9
:103DF00083819481807F9070929582958F708927BE
:103E00009F70892728278A859B85FC01838194815F
:103E10008F70922F98278FE0892789878A859B85C5
:103E2000FC0183819481807F9F70929582958F7031
:103E300089279F70892780935C018A859B85FC0177
:103E400083819481982F9295907F8985892B809387
:103E50005D0181E080935A0132C08A859B85FC0117
:103E600081819281969587959695879580688093B4
:103E70005C018A859B85FC0181819281282F229596
:103E8000220F220F207C8A859B85FC0183819481EF
:103E90009695879596958795822B80935D018A8567
:103EA0009B85FC01838194818295880F880F807C9B
:103EB00080935E0181E080935A0101C000008091EF
:103EC0005A012C960FB6F894DEBF0FBECDBFDF911E
:103ED000CF911F910F910895CF93DF93CDB7DEB7A8
:103EE00010926201DF91CF910895CF93DF9300D0BC
:103EF0000F92CDB7DEB780915A01882311F40C944C
:103F0000AB28809107018F3F09F053C580910801CC
:103F1000882309F44EC580916501882309F46EC099
:103F2000809166019091670101969093670180935B
:103F300066018091680190916901009749F0809134
:103F400068019091690101979093690180936801DC
:103F5000209166013091670180916A0190916B0117
:103F60002817390708F446C01092670110926601BD
:103F700080915B01883039F480E1809307018FE103
:103F800080936C0116C580915B018F3039F48FE00E
:103F9000809307018AE180936C010BC580915B01DE
:103FA000883139F487E0809307018FE080936C01BA
:103FB00000C580915B01803109F0FBC480916501EF
:103FC000882F90E09C012F5F3F4F80916D01882FDB
:103FD00090E0281739073CF487E18093070189E2D4
:103FE00080936C01E6C48FEF8093070181E1809399
:103FF0006C01DFC480915A010C94AD2820916E01B0
:1040000030916F01809168019091690128173907FB
:1040100068F480916E0190916F01019690936F0109
:1040200080936E0180915A010C94AD2880917001AB
:10403000882341F010925A011092700180915A0128
:104040000C94AD288091620180937101809171017F
:104050008F3019F48FEF8093710110926F011092DD
:104060006E0110927201109274011092730180918E
:104070005B01882F90E0AA2797FDA095BA2F41E019
:1040800050E02FE130E0841B950B2817390708F426
:104090008DC4865B9F4FFC01EE0FFF1F0590F491CE
:1040A000E02D099480E3809375018BE090E090937C
:1040B00077018093760188E1809378018BE080938B
:1040C00079018CE080937A018BE080937B011092E0
:1040D0007C0180916401845F80936C0180917D01FB
:1040E000882311F483E001C081E080936D0184EFA7
:1040F00091E090936B0180936A0184EF91E090933B
:1041000069018093680185E90E946A1852C484EBB2
:104110008093750180917D01882349F08CE290E0C5
:10412000909377018093760110926C0109C089E524
:1041300090E0909377018093760180E280936C0108
:104140008BE08093780181E2809379018BE080930A
:104150007A018AE080937B0181E080937C0181E099
:1041600080936D0110926B0110926A0180E293E0DE
:1041700090936901809368018CE90E946A1819C4C0
:1041800084EB8093750189E590E0909377018093AB
:1041900076018BE08093780181E2809379018BE056
:1041A00080937A018AE080937B0181E080937C0197
:1041B00081E180936C0181E080936D0110926B012D
:1041C00010926A0180E293E0909369018093680104
:1041D0008CE90E946A18EDC384EB8093750189E530
:1041E00090E090937701809376018BE08093780143
:1041F00081E2809379018BE080937A018AE0809359
:104200007B0181E080937C018AE280936C0181E0F4
:1042100080936D0110926B0110926A0180E293E02D
:1042200090936901809368018CE90E946A18C1C368
:104230008AE58093750189E590E0909377018093FA
:1042400076018BE08093780180E2809379018BE0A6
:1042500080937A018AE080937B0181E080937C01E6
:1042600085E280936C0181E080936D0110926B0177
:1042700010926A0184EF91E0909369018093680144
:104280008CE90E946A1895C38AE58093750189E5D7
:1042900090E090937701809376018BE08093780192
:1042A00080E2809379018BE080937A018AE08093A9
:1042B0007B0181E080937C0180E280936C0181E04E
:1042C00080936D018CEA93E090936B0180936A0177
:1042D0008CEA93E090936901809368018CE90E94D5
:1042E0006A1867C386E48093750185E490E0909333
:1042F00077018093760181E18093780183E3809355
:10430000790181E180937A0180E180937B0181E0F2
:1043100080937C0188E180936C0181E080936D0142
:1043200010926B0110926A0180E293E09093690110
:104330008093680185EA0E946A183BC384E48093F5
:10434000750181E290E0909377018093760188E097
:104350008093780188E18093790188E080937A01E5
:1043600087E080937B0181E080937C0180E38093F0
:104370006C0180917D01882311F482E001C081E00D
:1043800080936D0188EC95E090936B0180936A01B6
:1043900088EC95E090936901809368018CE90E9414
:1043A0006A1807C383E08093750184E990E09093D5
:1043B00077018093760183E08093780184E980938C
:1043C000790183E080937A0181E680937B0181E02B
:1043D00080937C018AE080936C0181E080936D0181
:1043E00010926B0110926A0184E893E09093690146
:1043F000809368018CE90E946A18DBC283E0809395
:10440000750188E490E0909377018093760183E0D2
:104410008093780184E98093790183E080937A0125
:1044200081E680937B0181E080937C018CE0809326
:104430006C0181E080936D0110926B0110926A0112
:1044400084E893E090936901809368018CE90E946D
:104450006A18AFC282E18093750182E190E0909387
:1044600077018093760182E18093090182E190E0F7
:1044700090930B0180930A0110927C018DE0809350
:104480006C0181E080936D0110926B0110926A01C2
:1044900084E893E0909369018093680185EA0E9423
:1044A0006A1887C285E38093750181E190E090935B
:1044B00077018093760189E08093090189E090E09B
:1044C00090930B0180930A0110927C0185E1809307
:1044D0006C0181E080936D0110926B0110926A0172
:1044E00084E893E0909369018093680185EA0E94D3
:1044F0006A185FC285E38093750181E190E0909333
:1045000077018093760189E08093090189E090E04A
:1045100090930B0180930A0110927C0184E28093B6
:104520006C0181E080936D0110926B0110926A0121
:1045300084E893E0909369018093680185EA0E9482
:104540006A1837C2109275011092770110927601A5
:1045500086E08093780183E28093790186E08093FE
:104560007A018EE080937B0181E080937C018FE073
:1045700080936C0182E080936D0184E195E09093DB
:104580006B0180936A0188E29AE0909369018093BD
:10459000680185EA0E946A180CC210927501109297
:1045A0007701109276018BE08093780189E5809302
:1045B00079018BE080937A0187E280937B0181E02F
:1045C00080937C018CE080936C0181E080936D018D
:1045D0008CEB92E090936B0180936A0188E29AE001
:1045E00090936901809368018CE90E946A18E1C187
:1045F0008BE18093750186E090E090937701809342
:1046000076018BE18093780186E0809379018AE0DE
:1046100080937A0189E180937B0181E080937C0122
:104620008AE080936C0182E080936D018CEB92E0D4
:1046300090936B0180936A018CEB92E090936901F7
:104640008093680185EA0E946A18B3C18BE0809369
:10465000750184E390E090937701809376018BE07D
:10466000809309018BE090E090930B0180930A0105
:1046700010927C018AE080936C0182E080936D014E
:1046800080E991E090936B0180936A0183E399E064
:1046900090936901809368018CE90E946A1889C12E
:1046A0008BE08093750184E390E090937701809391
:1046B00076018BE0809309018BE090E090930B01F1
:1046C00080930A0110927C0187E080936C0182E064
:1046D00080936D018CEB91E090936B0180936A0164
:1046E00083E399E0909369018093680187EC0E94CD
:1046F0006A185FC18BE08093750184E390E090932A
:104700007701809376018BE0809309018BE090E044
:1047100090930B0180930A0110927C0181E18093B8
:104720006C0183E080936D0180E991E090936B01CF
:1047300080936A0183E399E0909369018093680113
:104740008CE90E946A1835C186E08093750186E085
:1047500090E0909377018093760186E08093090141
:1047600086E090E090930B0180930A0110927C0107
:1047700085E180936C0181E080936D0110926B0163
:1047800010926A0184E893E0909369018093680134
:1047900085EA0E946A180DC18AE28093750182E160
:1047A00090E0909377018093760188E280936C018A
:1047B00086E0809378018DE08093790186E0809394
:1047C0007A0183E080937B0181E080937C0181E02A
:1047D00080936D0110926B0110926A0180EB94E05E
:1047E00090936901809368018CE90E946A18E1C086
:1047F00088E28093750187E290E09093770180933F
:1048000076018DE080936C018CE08093780188E0E4
:10481000809379018CE080937A0181E180937B0120
:1048200081E080937C0181E080936D0110926B01A7
:1048300010926A0180E293E090936901809368018D
:104840008CE90E946A18B5C080917D01882311F01F
:104850001092070184EB8093750189E590E09093B5
:1048600077018093760180E180936C018BE08093E7
:10487000780181E2809379018BE080937A018AE06C
:1048800080937B0181E080937C0181E080936D01C6
:1048900010926B0110926A0188EB91E0909369018C
:1048A000809368018CE90E946A1883C08CE280932F
:1048B00075018EE192E0909377018093760182E01A
:1048C00080936C018AE08093780185E4809379017C
:1048D0008AE080937A018DE180937B0181E080936F
:1048E0007C0181E080936D0110926B0110926A014E
:1048F00080EB94E090936901809368018CE90E94B9
:104900006A1857C083E08093750184E190E090932A
:1049100077018093760180E180936C0183E080933E
:1049200078018AE08093790183E080937A0184E0C2
:1049300080937B0181E080937C0181E080936D0115
:1049400010926B0110926A0180E293E090936901EA
:10495000809368018CE90E946A182BC085E08093DF
:10496000750183E090E0909377018093760185E074
:104970008093090183E090E090930B0180930A01FA
:1049800010927C0182E180936C0181E080936D0143
:1049900010926B0110926A0188EE93E09093690186
:1049A000809368018CE90E946A1803C010925A0132
:1049B000000080915A01882309F4A7C310920801CE
:1049C00080915B01882F90E0AA2797FDA095BA2FD0
:1049D00041E050E02FE130E0841B950B28173907A8
:1049E00008F48FC386599F4FFC01EE0FFF1F0590FF
:1049F000F491E02D099480915B018830F1F480916D
:104A00006A0190916B01009749F080916A01909141
:104A10006B01019790936B0180936A01809168010B
:104A200090916901009749F0809168019091690126
:104A300001979093690180936801809172018823A6
:104A400009F05AC1809107018F3F69F48091750187
:104A500080930901809176019091770190930B01E9
:104A600080930A0149C19091070180916C019817C8
:104A700008F025C180915B01833009F071C08091FD
:104A80000701803160F58BE0809309018091070177
:104A9000869586958695882F90E0845A9E4FFC01D6
:104AA0008081882F90E020910701222F30E020950F
:104AB000309527703070022E02C0959587950A9424
:104AC000E2F781709070882319F080E290E002C0D4
:104AD0008AE090E090930B0180930A010DC18091D0
:104AE0000701803151F48BE08093090189E590E062
:104AF00090930B0180930A01FFC0809107018532DA
:104B000008F0FAC08091070181508A838BE080937E
:104B100009018A81869586958695882F90E0845A2A
:104B20009E4FFC018081882F90E02A81222F30E067
:104B30002095309527703070022E02C0959587958C
:104B40000A94E2F781709070882319F080E290E077
:104B500002C08AE090E090930B0180930A01CCC0E0
:104B600080915B018B3109F071C080910701883021
:104B700060F58BE080930901809107018695869509
:104B80008695882F90E0845A9E4FFC018081882F63
:104B900090E020910701222F30E02095309527707A
:104BA0003070022E02C0959587950A94E2F78170C5
:104BB0009070882319F081E290E002C08AE090E0D2
:104BC00090930B0180930A0197C080910701883070
:104BD00051F48BE08093090189E590E090930B01FB
:104BE00080930A0189C080910701813108F084C057
:104BF0008091070181508B838BE0809309018B8129
:104C0000869586958695882F90E0845A9E4FFC0164
:104C10008081882F90E02B81222F30E020953095E5
:104C200027703070022E02C0959587950A94E2F79E
:104C300081709070882319F081E290E002C08AE0D0
:104C400090E090930B0180930A0156C08091070178
:104C5000869586958695882F90E0845A9E4FFC0114
:104C60008081882F90E020910701222F30E020954D
:104C7000309527703070022E02C0959587950A9462
:104C8000E2F781709070882369F0809178018093B9
:104C9000090180917901882F90E090930B01809316
:104CA0000A012AC080917A018093090180917B01D9
:104CB000882F90E090930B0180930A011DC0809192
:104CC0007C018823C9F080917A0180930901909139
:104CD000650180916D01981748F480917B01882FC0
:104CE00090E090930B0180930A0106C08FEF90E053
:104CF00090930B0180930A019091720180910901B8
:104D0000981760F480917201882311F40E9434187E
:104D1000809172018F5F80937201F7C120917301BE
:104D20003091740180910A0190910B012817390785
:104D300090F48091730190917401009711F40E9496
:104D40004B188091730190917401019690937401B6
:104D500080937301DAC1809107018F5F809307010F
:104D600080910701282F30E080916C01482F50E09E
:104D700080917C01882F90E0840F951F28173907B8
:104D8000ACF08FEF80930701809165018F5F809376
:104D900065019091650180916D01981721F4109241
:104DA0005A011092650181E080930801109272010E
:104DB0001092740110927301A8C1909172018091B8
:104DC0000901981709F061C02091730130917401B5
:104DD00080910A0190910B012817390709F055C0FD
:104DE000809107018F5F8093070190910701809167
:104DF0006C01981708F443C08FEF809307018091EE
:104E00005B018F3041F080915B01883121F080910E
:104E10005B01803159F5809165018F5F8093650159
:104E200080917D01882331F083E399E090936B01B9
:104E300080936A0190917D0180917101981758F4D7
:104E400080916D018F5F80936D0180917D018F5FF7
:104E500080937D010EC09091650180916D0198173E
:104E600041F410925A011092650103C010925A0148
:104E700001C0000081E0809308010E944B1810924D
:104E800072011092740110927301809108018823BD
:104E900009F03AC180915B018F3049F080915B014C
:104EA000883129F080915B01803109F056C08091F2
:104EB00007018F3FE1F080915B018F3021F48091F9
:104EC00007018F30A1F080915B01883121F480913E
:104ED0000701873061F080915B018031B9F48091E6
:104EE0000701873121F0809107018F3279F4809199
:104EF00075018093090180917601909177019093DB
:104F00000B0180930A0181E08983ABC08BE0809321
:104F100009018BE090E090930B0180930A0180914E
:104F20000701869586958695882F90E0845A9E4F36
:104F3000FC018081882F90E020910701222F30E032
:104F40002095309527703070022E02C09595879578
:104F50000A94E2F78170898384C0809107018F3FB2
:104F6000F1F480915B01893021F080915B01853102
:104F700069F4809175018093090180917601909187
:104F8000770190930B0180930A0106C080915B0129
:104F9000803211F41092070181E0898358C080911A
:104FA0005B01893021F080915B01853199F589E0C1
:104FB0008093090189E090E090930B0180930A01AE
:104FC00080915B01893071F480910701843011F583
:104FD00082E18093090182E190E090930B0180933C
:104FE0000A0118C080910701843051F48BE180934D
:104FF000090182E190E090930B0180930A010AC0BD
:1050000080910701853031F482E190E090930B01AB
:1050100080930A0180910701869586958695882F51
:1050200090E0845A9E4FFC018081882F90E020916F
:105030000701222F30E02095309527703070022E26
:1050400002C0959587950A94E2F7817089838091D3
:105050005B01873031F481E09981992309F080E088
:1050600089838981882321F19091720180910901BE
:10507000981760F480917201882311F40E9434180B
:10508000809172018F5F809372013EC080917301A5
:1050900090917401009711F40E944B188091730154
:1050A00090917401019690937401809373012CC0C8
:1050B000209173013091740180910A0190910B014C
:1050C0002817390790F4809173019091740100972B
:1050D00011F40E944B188091730190917401019614
:1050E00090937401809373010FC0809172018823A3
:1050F00011F40E943418809172018F5F80937201C5
:1051000003C010925A0101C0000080915A01882307
:1051100011F590917D0180917101981790F4809123
:105120005B01823129F480915E018F6080935E0182
:1051300080917D018F5F80937D0181E080935A0192
:105140000AC081E080935A0181E08093700110923F
:10515000710110927D0180915A010F900F900F9074
:10516000DF91CF910895CF93DF93CDB7DEB7F89459
:1051700081E0DF91CF910895CF93DF9300D0CDB739
:10518000DEB79A8389838FE590E029813A81F9011E
:105190002081FC0120830F900F90DF91CF91089523
:1051A000CF93DF93CDB7DEB78AE490E027E532E016
:1051B000FC01318320838EE490E029E0FC01208310
:1051C00089E590E020E1FC012083DF91CF910895F3
:1051D000CF93DF930F92CDB7DEB789838981823079
:1051E00029F08981813011F080E02EC08AE290E0C0
:1051F000FC0110828981813031F489E290E02BE951
:10520000FC01208305C089E290E02CE0FC012083B2
:1052100080E490E0FC0110828BE290E02BE230E031
:10522000F90120812260FC0120838AE290E028E9D4
:10523000FC01208380E490E026E8FC01208381E0EB
:1052400061E00E94BF2B81E00F90DF91CF91089524
:10525000CF93DF93CDB7DEB7109283011092840114
:105260001092850110928601109287011092880198
:105270001092890110928A01DF91CF9108951F92B7
:105280000F920FB60F9211242F933F934F935F937A
:105290006F937F938F939F93AF93BF93EF93FF93FE
:1052A000CF93DF9300D0CDB7DEB70E94751F882360
:1052B00011F40E94AB099091830181E0983C08F4BD
:1052C00080E09F5F909383018823C1F18FE590E098
:1052D000FC0180818A830E94B328898306C0809163
:1052E0008901816080938901198289818823B9F7B6
:1052F000CE0102960E94BC281092830190918401F5
:1053000081E0943608F480E09F5F909384018823C5
:10531000A9F0109284018091850190918601A0915D
:105320008701B09188010196A11DB11D809385016F
:1053300090938601A0938701B09388010F900F90FE
:10534000DF91CF91FF91EF91BF91AF919F918F919D
:105350007F916F915F914F913F912F910F900FBE71
:105360000F901F901895CF93DF9300D000D00F922D
:10537000CDB7DEB78B837D836C8325C08FE590E04E
:10538000FC0180818A830E94B328898306C08091B2
:1053900089018E7F80938901198289818823B9F7D9
:1053A000CE0102960E94BC28909189018B81816078
:1053B00089238823C9F3909189018B8189238823CC
:1053C00011F084E00EC021E08C819D81009709F4EA
:1053D00020E08C819D8101979D838C83222371F62F
:1053E00081E00F900F900F900F900F90DF91CF9171
:1053F0000895CF93DF9300D000D000D0CDB7DEB7B3
:105400009E838D838FE590E0FC0180818B830E94D9
:10541000B328898306C0809189018E7F809389019A
:10542000198289818823B9F7CE0103960E94BC288E
:105430001EC080918901882F90E081709070009744
:10544000C1F38FE590E0FC0180818C830E94B3283A
:105450008A8306C0809189018E7F809389011A8298
:105460008A818823B9F7CE0104960E94BC2821E0E6
:105470008D819E81009709F420E08D819E810197A6
:105480009E838D832223A9F626960FB6F894DEBF5D
:105490000FBECDBFDF91CF910895CF93DF93CDB7EE
:1054A000DEB70E9428290E9465050E9479180E9493
:1054B000D02882E00E94E82878940E94920181E03E
:1054C00090E0DF91CF910895CF93DF9300D00F92BA
:1054D000CDB7DEB71A82198285E590E0FC018081A4
:1054E0008B8385E590E02B812160FC01208385E59D
:1054F00090E02B812D7FFC01208389819A81FC0122
:1055000009950F900F900F90DF91CF910895CF9351
:10551000DF930F92CDB7DEB789838981803330F076
:1055200089818A3318F4898180530AC08981813442
:1055300030F08981873418F48981875301C08FEF57
:105540000F90DF91CF910895CF93DF930F92CDB756
:10555000DEB7898389818F70898389818A3018F4C5
:105560008981805D02C08981895C0F90DF91CF9134
:105570000895FF920F931F93CF93DF9300D000D035
:105580000F92CDB7DEB79A8389837C836B834D837B
:105590002BC089819A81FC01208189819A810196A1
:1055A0009A838983822F0E94872A282F2295207F21
:1055B0008B819C81FC0120830B811C81F801F08090
:1055C00089819A81FC01208189819A8101969A833F
:1055D0008983822F0E94872A8F29F80180838B81FB
:1055E0009C8101969C838B8381E09D81992309F4A2
:1055F00080E09D8191509D83882359F60F900F90F4
:105600000F900F900F90DF91CF911F910F91FF900E
:105610000895CF93DF9300D000D000D0CDB7DEB790
:105620009C838B837E836D838D819E819A83898306
:105630008B819C81892F992782958F700E94A42A43
:10564000282F8D819E81FC0120838D819E81019672
:105650009E838D838B819C81892F99270E94A42A08
:10566000282F8D819E81FC0120838D819E81019652
:105670009E838D838B819C81929582958F708927E3
:105680009F7089270E94A42A282F8D819E81FC016A
:1056900020838D819E8101969E838D838B810E94C4
:1056A000A42A282F8D819E81FC0120838D819E81DB
:1056B00001969E838D838D819E81FC01108289815C
:1056C0009A8126960FB6F894DEBF0FBECDBFDF914C
:1056D000CF910895CF93DF9300D000D00F92CDB734
:1056E000DEB78B837D836C838C819D819A838983D4
:1056F0008B8182958F700E94A42A282F8C819D8196
:10570000FC0120838C819D8101969D838C838B81FC
:105710000E94A42A282F8C819D81FC0120838C81EA
:105720009D8101969D838C838C819D81FC011082DB
:1057300089819A810F900F900F900F900F90DF91B9
:10574000CF910895CF93DF93CDB7DEB7F89481E082
:10575000DF91CF910895CF93DF9300D0CDB7DEB71F
:105760009A8389838FE590E029813A81F90120812C
:10577000FC0120830F900F90DF91CF910895CF937C
:10578000DF9300D000D00F92CDB7DEB78C836D834E
:105790008FE590E0FC0180818B830E94A22B8A839D
:1057A00049C08C81813021F510921D0210921E0299
:1057B0008BEB91E090931C0280931B02198215C021
:1057C0008981282F30E0C901880F991F820F931F0C
:1057D000880F991F880F991F880F991F85549E4F16
:1057E0000E94AD2D89818F5F89838981843040F348
:1057F0008D818130F1F410927F0210928002198223
:1058000015C08981282F30E0C901880F991F820FA8
:10581000931F880F991F880F991F880F991F815E0A
:105820009D4F0E942A2F89818F5F898389818430CF
:1058300040F31A828A81882309F0B3CFCE01039600
:105840000E94AB2B0F900F900F900F900F90DF9155
:10585000CF9108951F920F920FB60F9211242F939C
:105860003F934F935F936F937F938F939F93AF93E8
:10587000BF93EF93FF93CF93DF9300D000D0CDB7CA
:10588000DEB71A821B828BE290E0FC0180818A8362
:105890008CE290E0FC0180818B838BE290E0FC0144
:1058A0008081882F90E088719070009769F005C022
:1058B0008CE290E0FC0180818A838BE290E0FC0125
:1058C00080818823ACF387C08B81882F90E0823061
:1058D000910521F083309105C9F04EC080911B02E3
:1058E00090911C02009779F080911B0290911C020C
:1058F000FC018589813039F480911B0290911C0252
:10590000FC01168A68C00E94012D65C080911B02AF
:1059100090911C02FC018589813009F059C0809169
:105920001B0290911C02FC0186898823F1F0809172
:105930001B0290911C0222E0FC01258B8FE590E078
:10594000FC0180818C830E94A22B898306C08091F8
:105950008901826080938901198289818823B9F73E
:10596000CE0104960E94AB2B33C080911B02909114
:105970001C02FC01168A2CC080911B0290911C0213
:10598000FC018589813031F580911B0290911C02C8
:10599000FC0186898531F0F480911B0290911C02F4
:1059A0000097C1F040911B0250911C0280911B0294
:1059B00090911C02FC016689262F30E0240F351FD0
:1059C0004B81F9014083262F2F5FFC01268B02C0FB
:1059D000000001C000002496DEBFCDBFDF91CF9153
:1059E000FF91EF91BF91AF919F918F917F916F91B7
:1059F0005F914F913F912F910F900FBE0F901F908D
:105A00001895CF93DF930F92CDB7DEB7198243C0BD
:105A10008981282F30E0C901880F991F820F931FB9
:105A2000880F991F880F991F880F991F80539E4FC9
:105A3000FC018081882361F58981282F30E0C9012C
:105A4000880F991F820F931F880F991F880F991F26
:105A5000880F991F85549E4F90931C0280931B02C0
:105A600080911B0290911C0221E0FC01258B80910A
:105A70001B0290911C0220911E02FC01278B822F99
:105A80008F5F80931E0280911B0290911C020DC0BB
:105A900089818F5F89838981843008F4B9CF10921E
:105AA0001C0210921B0280E090E00F90DF91CF91DA
:105AB0000895CF93DF930F92CDB7DEB7198243C01D
:105AC00040911D028981282F30E0C901880F991F5C
:105AD000820F931F880F991F880F991F880F991F96
